{
  "_format": "hh-sol-artifact-1",
  "contractName": "Remittance",
  "sourceName": "contracts/Remittance.sol",
  "abi": [
    {
      "inputs": [],
      "stateMutability": "nonpayable",
      "type": "constructor"
    },
    {
      "inputs": [],
      "name": "EnforcedPause",
      "type": "error"
    },
    {
      "inputs": [],
      "name": "ExpectedPause",
      "type": "error"
    },
    {
      "inputs": [
        {
          "internalType": "address",
          "name": "owner",
          "type": "address"
        }
      ],
      "name": "OwnableInvalidOwner",
      "type": "error"
    },
    {
      "inputs": [
        {
          "internalType": "address",
          "name": "account",
          "type": "address"
        }
      ],
      "name": "OwnableUnauthorizedAccount",
      "type": "error"
    },
    {
      "inputs": [],
      "name": "ReentrancyGuardReentrantCall",
      "type": "error"
    },
    {
      "inputs": [
        {
          "internalType": "address",
          "name": "token",
          "type": "address"
        }
      ],
      "name": "SafeERC20FailedOperation",
      "type": "error"
    },
    {
      "anonymous": false,
      "inputs": [
        {
          "indexed": true,
          "internalType": "address",
          "name": "admin",
          "type": "address"
        },
        {
          "indexed": false,
          "internalType": "uint256",
          "name": "amount",
          "type": "uint256"
        }
      ],
      "name": "AdminDeposit",
      "type": "event"
    },
    {
      "anonymous": false,
      "inputs": [
        {
          "indexed": true,
          "internalType": "address",
          "name": "recipient",
          "type": "address"
        },
        {
          "indexed": false,
          "internalType": "uint256",
          "name": "amount",
          "type": "uint256"
        }
      ],
      "name": "Claimed",
      "type": "event"
    },
    {
      "anonymous": false,
      "inputs": [
        {
          "indexed": false,
          "internalType": "uint256",
          "name": "amount",
          "type": "uint256"
        },
        {
          "indexed": false,
          "internalType": "uint256",
          "name": "calculatedFee",
          "type": "uint256"
        }
      ],
      "name": "FeeCalculated",
      "type": "event"
    },
    {
      "anonymous": false,
      "inputs": [
        {
          "indexed": false,
          "internalType": "uint256",
          "name": "amount",
          "type": "uint256"
        },
        {
          "indexed": false,
          "internalType": "uint256",
          "name": "totalAccumulated",
          "type": "uint256"
        }
      ],
      "name": "FeeCollected",
      "type": "event"
    },
    {
      "anonymous": false,
      "inputs": [
        {
          "indexed": true,
          "internalType": "address",
          "name": "recipient",
          "type": "address"
        },
        {
          "indexed": false,
          "internalType": "bool",
          "name": "frozen",
          "type": "bool"
        }
      ],
      "name": "Frozen",
      "type": "event"
    },
    {
      "anonymous": false,
      "inputs": [
        {
          "indexed": true,
          "internalType": "address",
          "name": "user",
          "type": "address"
        },
        {
          "indexed": false,
          "internalType": "uint256",
          "name": "timestamp",
          "type": "uint256"
        }
      ],
      "name": "GDPRDataErasureRequested",
      "type": "event"
    },
    {
      "anonymous": false,
      "inputs": [
        {
          "indexed": true,
          "internalType": "address",
          "name": "previousOwner",
          "type": "address"
        },
        {
          "indexed": true,
          "internalType": "address",
          "name": "newOwner",
          "type": "address"
        }
      ],
      "name": "OwnershipTransferred",
      "type": "event"
    },
    {
      "anonymous": false,
      "inputs": [
        {
          "indexed": false,
          "internalType": "address",
          "name": "account",
          "type": "address"
        }
      ],
      "name": "Paused",
      "type": "event"
    },
    {
      "anonymous": false,
      "inputs": [
        {
          "indexed": true,
          "internalType": "address",
          "name": "reporter",
          "type": "address"
        },
        {
          "indexed": false,
          "internalType": "uint256",
          "name": "timestamp",
          "type": "uint256"
        },
        {
          "indexed": false,
          "internalType": "string",
          "name": "reason",
          "type": "string"
        }
      ],
      "name": "SecurityBreachSuspected",
      "type": "event"
    },
    {
      "anonymous": false,
      "inputs": [
        {
          "indexed": true,
          "internalType": "address",
          "name": "sender",
          "type": "address"
        },
        {
          "indexed": true,
          "internalType": "address",
          "name": "recipient",
          "type": "address"
        },
        {
          "indexed": false,
          "internalType": "uint256",
          "name": "amount",
          "type": "uint256"
        }
      ],
      "name": "Sent",
      "type": "event"
    },
    {
      "anonymous": false,
      "inputs": [
        {
          "indexed": true,
          "internalType": "address",
          "name": "token",
          "type": "address"
        },
        {
          "indexed": false,
          "internalType": "string",
          "name": "symbol",
          "type": "string"
        }
      ],
      "name": "StablecoinAdded",
      "type": "event"
    },
    {
      "anonymous": false,
      "inputs": [
        {
          "indexed": true,
          "internalType": "address",
          "name": "recipient",
          "type": "address"
        },
        {
          "indexed": true,
          "internalType": "address",
          "name": "token",
          "type": "address"
        },
        {
          "indexed": false,
          "internalType": "uint256",
          "name": "amount",
          "type": "uint256"
        }
      ],
      "name": "StablecoinClaimed",
      "type": "event"
    },
    {
      "anonymous": false,
      "inputs": [
        {
          "indexed": true,
          "internalType": "address",
          "name": "token",
          "type": "address"
        },
        {
          "indexed": false,
          "internalType": "uint256",
          "name": "amount",
          "type": "uint256"
        }
      ],
      "name": "StablecoinFeeWithdrawn",
      "type": "event"
    },
    {
      "anonymous": false,
      "inputs": [
        {
          "indexed": true,
          "internalType": "address",
          "name": "token",
          "type": "address"
        }
      ],
      "name": "StablecoinRemoved",
      "type": "event"
    },
    {
      "anonymous": false,
      "inputs": [
        {
          "indexed": true,
          "internalType": "address",
          "name": "sender",
          "type": "address"
        },
        {
          "indexed": true,
          "internalType": "address",
          "name": "recipient",
          "type": "address"
        },
        {
          "indexed": true,
          "internalType": "address",
          "name": "token",
          "type": "address"
        },
        {
          "indexed": false,
          "internalType": "uint256",
          "name": "amount",
          "type": "uint256"
        },
        {
          "indexed": false,
          "internalType": "uint256",
          "name": "fee",
          "type": "uint256"
        },
        {
          "indexed": false,
          "internalType": "uint256",
          "name": "txnId",
          "type": "uint256"
        }
      ],
      "name": "StablecoinSent",
      "type": "event"
    },
    {
      "anonymous": false,
      "inputs": [
        {
          "indexed": true,
          "internalType": "address",
          "name": "user",
          "type": "address"
        },
        {
          "indexed": false,
          "internalType": "enum LimitLib.UserTier",
          "name": "newTier",
          "type": "uint8"
        }
      ],
      "name": "TierUpdated",
      "type": "event"
    },
    {
      "anonymous": false,
      "inputs": [
        {
          "indexed": true,
          "internalType": "uint256",
          "name": "txnId",
          "type": "uint256"
        },
        {
          "indexed": true,
          "internalType": "address",
          "name": "sender",
          "type": "address"
        },
        {
          "indexed": true,
          "internalType": "address",
          "name": "recipient",
          "type": "address"
        },
        {
          "indexed": false,
          "internalType": "uint256",
          "name": "amount",
          "type": "uint256"
        },
        {
          "indexed": false,
          "internalType": "uint256",
          "name": "fee",
          "type": "uint256"
        }
      ],
      "name": "TransactionRecorded",
      "type": "event"
    },
    {
      "anonymous": false,
      "inputs": [
        {
          "indexed": false,
          "internalType": "address",
          "name": "account",
          "type": "address"
        }
      ],
      "name": "Unpaused",
      "type": "event"
    },
    {
      "anonymous": false,
      "inputs": [
        {
          "indexed": true,
          "internalType": "address",
          "name": "user",
          "type": "address"
        },
        {
          "indexed": false,
          "internalType": "bool",
          "name": "status",
          "type": "bool"
        }
      ],
      "name": "UserBlacklisted",
      "type": "event"
    },
    {
      "anonymous": false,
      "inputs": [
        {
          "indexed": true,
          "internalType": "address",
          "name": "user",
          "type": "address"
        },
        {
          "indexed": false,
          "internalType": "bool",
          "name": "status",
          "type": "bool"
        }
      ],
      "name": "UserWhitelisted",
      "type": "event"
    },
    {
      "stateMutability": "nonpayable",
      "type": "fallback"
    },
    {
      "inputs": [],
      "name": "DATA_RETENTION_PERIOD",
      "outputs": [
        {
          "internalType": "uint256",
          "name": "",
          "type": "uint256"
        }
      ],
      "stateMutability": "view",
      "type": "function"
    },
    {
      "inputs": [],
      "name": "FEE_DENOMINATOR",
      "outputs": [
        {
          "internalType": "uint256",
          "name": "",
          "type": "uint256"
        }
      ],
      "stateMutability": "view",
      "type": "function"
    },
    {
      "inputs": [],
      "name": "TRANSACTION_FEE_RATE",
      "outputs": [
        {
          "internalType": "uint256",
          "name": "",
          "type": "uint256"
        }
      ],
      "stateMutability": "view",
      "type": "function"
    },
    {
      "inputs": [
        {
          "internalType": "address",
          "name": "token",
          "type": "address"
        },
        {
          "internalType": "string",
          "name": "symbol",
          "type": "string"
        }
      ],
      "name": "addSupportedStablecoin",
      "outputs": [],
      "stateMutability": "nonpayable",
      "type": "function"
    },
    {
      "inputs": [],
      "name": "adminDeposit",
      "outputs": [],
      "stateMutability": "payable",
      "type": "function"
    },
    {
      "inputs": [
        {
          "internalType": "address",
          "name": "user",
          "type": "address"
        }
      ],
      "name": "adminEraseKYCData",
      "outputs": [],
      "stateMutability": "nonpayable",
      "type": "function"
    },
    {
      "inputs": [
        {
          "internalType": "uint256",
          "name": "",
          "type": "uint256"
        }
      ],
      "name": "allTransactions",
      "outputs": [
        {
          "internalType": "address",
          "name": "sender",
          "type": "address"
        },
        {
          "internalType": "address",
          "name": "recipient",
          "type": "address"
        },
        {
          "internalType": "uint256",
          "name": "amount",
          "type": "uint256"
        },
        {
          "internalType": "uint256",
          "name": "fee",
          "type": "uint256"
        },
        {
          "internalType": "uint256",
          "name": "timestamp",
          "type": "uint256"
        },
        {
          "internalType": "uint256",
          "name": "txnId",
          "type": "uint256"
        },
        {
          "internalType": "address",
          "name": "token",
          "type": "address"
        }
      ],
      "stateMutability": "view",
      "type": "function"
    },
    {
      "inputs": [
        {
          "internalType": "address",
          "name": "user",
          "type": "address"
        },
        {
          "internalType": "enum LimitLib.UserTier",
          "name": "tier",
          "type": "uint8"
        }
      ],
      "name": "approveKYC",
      "outputs": [],
      "stateMutability": "nonpayable",
      "type": "function"
    },
    {
      "inputs": [
        {
          "internalType": "address[]",
          "name": "users",
          "type": "address[]"
        },
        {
          "internalType": "enum LimitLib.UserTier[]",
          "name": "tiers",
          "type": "uint8[]"
        }
      ],
      "name": "batchApprove",
      "outputs": [],
      "stateMutability": "nonpayable",
      "type": "function"
    },
    {
      "inputs": [
        {
          "internalType": "uint256",
          "name": "amount",
          "type": "uint256"
        }
      ],
      "name": "calculateTransactionFee",
      "outputs": [
        {
          "internalType": "uint256",
          "name": "",
          "type": "uint256"
        }
      ],
      "stateMutability": "pure",
      "type": "function"
    },
    {
      "inputs": [],
      "name": "claimRemittance",
      "outputs": [],
      "stateMutability": "nonpayable",
      "type": "function"
    },
    {
      "inputs": [
        {
          "internalType": "address",
          "name": "token",
          "type": "address"
        }
      ],
      "name": "claimStablecoinRemittance",
      "outputs": [],
      "stateMutability": "nonpayable",
      "type": "function"
    },
    {
      "inputs": [
        {
          "internalType": "address",
          "name": "user",
          "type": "address"
        }
      ],
      "name": "emergencyRecovery",
      "outputs": [],
      "stateMutability": "nonpayable",
      "type": "function"
    },
    {
      "inputs": [],
      "name": "emergencyWithdraw",
      "outputs": [],
      "stateMutability": "nonpayable",
      "type": "function"
    },
    {
      "inputs": [],
      "name": "eraseMyKYCData",
      "outputs": [],
      "stateMutability": "nonpayable",
      "type": "function"
    },
    {
      "inputs": [
        {
          "internalType": "address",
          "name": "user",
          "type": "address"
        },
        {
          "internalType": "bool",
          "name": "frozen",
          "type": "bool"
        }
      ],
      "name": "freezeRecipient",
      "outputs": [],
      "stateMutability": "nonpayable",
      "type": "function"
    },
    {
      "inputs": [],
      "name": "getAccumulatedFees",
      "outputs": [
        {
          "internalType": "uint256",
          "name": "",
          "type": "uint256"
        }
      ],
      "stateMutability": "view",
      "type": "function"
    },
    {
      "inputs": [],
      "name": "getAllKYCUsers",
      "outputs": [
        {
          "internalType": "address[]",
          "name": "",
          "type": "address[]"
        }
      ],
      "stateMutability": "view",
      "type": "function"
    },
    {
      "inputs": [],
      "name": "getAllTransactions",
      "outputs": [
        {
          "components": [
            {
              "internalType": "address",
              "name": "sender",
              "type": "address"
            },
            {
              "internalType": "address",
              "name": "recipient",
              "type": "address"
            },
            {
              "internalType": "uint256",
              "name": "amount",
              "type": "uint256"
            },
            {
              "internalType": "uint256",
              "name": "fee",
              "type": "uint256"
            },
            {
              "internalType": "uint256",
              "name": "timestamp",
              "type": "uint256"
            },
            {
              "internalType": "uint256",
              "name": "txnId",
              "type": "uint256"
            },
            {
              "internalType": "address",
              "name": "token",
              "type": "address"
            }
          ],
          "internalType": "struct Remittance.Transaction[]",
          "name": "",
          "type": "tuple[]"
        }
      ],
      "stateMutability": "view",
      "type": "function"
    },
    {
      "inputs": [
        {
          "internalType": "address",
          "name": "user",
          "type": "address"
        }
      ],
      "name": "getBalance",
      "outputs": [
        {
          "internalType": "uint256",
          "name": "",
          "type": "uint256"
        }
      ],
      "stateMutability": "view",
      "type": "function"
    },
    {
      "inputs": [],
      "name": "getContractBalance",
      "outputs": [
        {
          "internalType": "uint256",
          "name": "",
          "type": "uint256"
        }
      ],
      "stateMutability": "view",
      "type": "function"
    },
    {
      "inputs": [],
      "name": "getContractInfo",
      "outputs": [
        {
          "internalType": "uint256",
          "name": "totalUsers",
          "type": "uint256"
        },
        {
          "internalType": "uint256",
          "name": "totalTransactions",
          "type": "uint256"
        },
        {
          "internalType": "uint256",
          "name": "contractBalance",
          "type": "uint256"
        },
        {
          "internalType": "uint256",
          "name": "pendingKYCs",
          "type": "uint256"
        },
        {
          "internalType": "uint256",
          "name": "accumulatedFeesAmount",
          "type": "uint256"
        }
      ],
      "stateMutability": "view",
      "type": "function"
    },
    {
      "inputs": [
        {
          "internalType": "address",
          "name": "user",
          "type": "address"
        }
      ],
      "name": "getDataRetentionEnd",
      "outputs": [
        {
          "internalType": "uint256",
          "name": "",
          "type": "uint256"
        }
      ],
      "stateMutability": "view",
      "type": "function"
    },
    {
      "inputs": [
        {
          "internalType": "address",
          "name": "user",
          "type": "address"
        }
      ],
      "name": "getKYCRequest",
      "outputs": [
        {
          "internalType": "string",
          "name": "documentHash",
          "type": "string"
        },
        {
          "internalType": "uint256",
          "name": "timestamp",
          "type": "uint256"
        },
        {
          "internalType": "enum KYCLib.KYCStatus",
          "name": "status",
          "type": "uint8"
        },
        {
          "internalType": "string",
          "name": "rejectionReason",
          "type": "string"
        },
        {
          "internalType": "bool",
          "name": "consentGiven",
          "type": "bool"
        },
        {
          "internalType": "uint256",
          "name": "consentTimestamp",
          "type": "uint256"
        },
        {
          "internalType": "uint256",
          "name": "dataRetentionEnd",
          "type": "uint256"
        }
      ],
      "stateMutability": "view",
      "type": "function"
    },
    {
      "inputs": [
        {
          "internalType": "address",
          "name": "user",
          "type": "address"
        }
      ],
      "name": "getKYCStatus",
      "outputs": [
        {
          "internalType": "enum KYCLib.KYCStatus",
          "name": "",
          "type": "uint8"
        }
      ],
      "stateMutability": "view",
      "type": "function"
    },
    {
      "inputs": [],
      "name": "getMyBalance",
      "outputs": [
        {
          "internalType": "uint256",
          "name": "",
          "type": "uint256"
        }
      ],
      "stateMutability": "view",
      "type": "function"
    },
    {
      "inputs": [],
      "name": "getMyBlacklistStatus",
      "outputs": [
        {
          "internalType": "bool",
          "name": "",
          "type": "bool"
        }
      ],
      "stateMutability": "view",
      "type": "function"
    },
    {
      "inputs": [],
      "name": "getMyFrozenStatus",
      "outputs": [
        {
          "internalType": "bool",
          "name": "",
          "type": "bool"
        }
      ],
      "stateMutability": "view",
      "type": "function"
    },
    {
      "inputs": [],
      "name": "getMyKYCStatus",
      "outputs": [
        {
          "internalType": "enum KYCLib.KYCStatus",
          "name": "",
          "type": "uint8"
        }
      ],
      "stateMutability": "view",
      "type": "function"
    },
    {
      "inputs": [],
      "name": "getMyRemainingLimit",
      "outputs": [
        {
          "internalType": "uint256",
          "name": "",
          "type": "uint256"
        }
      ],
      "stateMutability": "view",
      "type": "function"
    },
    {
      "inputs": [
        {
          "internalType": "address",
          "name": "token",
          "type": "address"
        }
      ],
      "name": "getMyStablecoinBalance",
      "outputs": [
        {
          "internalType": "uint256",
          "name": "",
          "type": "uint256"
        }
      ],
      "stateMutability": "view",
      "type": "function"
    },
    {
      "inputs": [],
      "name": "getMyTier",
      "outputs": [
        {
          "internalType": "enum LimitLib.UserTier",
          "name": "",
          "type": "uint8"
        }
      ],
      "stateMutability": "view",
      "type": "function"
    },
    {
      "inputs": [],
      "name": "getMyTransactionIds",
      "outputs": [
        {
          "internalType": "uint256[]",
          "name": "",
          "type": "uint256[]"
        }
      ],
      "stateMutability": "view",
      "type": "function"
    },
    {
      "inputs": [],
      "name": "getMyTransactions",
      "outputs": [
        {
          "components": [
            {
              "internalType": "address",
              "name": "sender",
              "type": "address"
            },
            {
              "internalType": "address",
              "name": "recipient",
              "type": "address"
            },
            {
              "internalType": "uint256",
              "name": "amount",
              "type": "uint256"
            },
            {
              "internalType": "uint256",
              "name": "fee",
              "type": "uint256"
            },
            {
              "internalType": "uint256",
              "name": "timestamp",
              "type": "uint256"
            },
            {
              "internalType": "uint256",
              "name": "txnId",
              "type": "uint256"
            },
            {
              "internalType": "address",
              "name": "token",
              "type": "address"
            }
          ],
          "internalType": "struct Remittance.Transaction[]",
          "name": "",
          "type": "tuple[]"
        }
      ],
      "stateMutability": "view",
      "type": "function"
    },
    {
      "inputs": [],
      "name": "getMyWhitelistStatus",
      "outputs": [
        {
          "internalType": "bool",
          "name": "",
          "type": "bool"
        }
      ],
      "stateMutability": "view",
      "type": "function"
    },
    {
      "inputs": [],
      "name": "getPendingKYC",
      "outputs": [
        {
          "internalType": "address[]",
          "name": "",
          "type": "address[]"
        }
      ],
      "stateMutability": "view",
      "type": "function"
    },
    {
      "inputs": [
        {
          "internalType": "address",
          "name": "user",
          "type": "address"
        }
      ],
      "name": "getRemainingLimit",
      "outputs": [
        {
          "internalType": "uint256",
          "name": "",
          "type": "uint256"
        }
      ],
      "stateMutability": "view",
      "type": "function"
    },
    {
      "inputs": [
        {
          "internalType": "address",
          "name": "token",
          "type": "address"
        }
      ],
      "name": "getStablecoinAccumulatedFees",
      "outputs": [
        {
          "internalType": "uint256",
          "name": "",
          "type": "uint256"
        }
      ],
      "stateMutability": "view",
      "type": "function"
    },
    {
      "inputs": [
        {
          "internalType": "address",
          "name": "user",
          "type": "address"
        },
        {
          "internalType": "address",
          "name": "token",
          "type": "address"
        }
      ],
      "name": "getStablecoinBalance",
      "outputs": [
        {
          "internalType": "uint256",
          "name": "",
          "type": "uint256"
        }
      ],
      "stateMutability": "view",
      "type": "function"
    },
    {
      "inputs": [],
      "name": "getSupportedStablecoins",
      "outputs": [
        {
          "internalType": "address[]",
          "name": "",
          "type": "address[]"
        }
      ],
      "stateMutability": "view",
      "type": "function"
    },
    {
      "inputs": [
        {
          "internalType": "enum LimitLib.UserTier",
          "name": "tier",
          "type": "uint8"
        }
      ],
      "name": "getTierLimit",
      "outputs": [
        {
          "internalType": "uint256",
          "name": "",
          "type": "uint256"
        }
      ],
      "stateMutability": "view",
      "type": "function"
    },
    {
      "inputs": [],
      "name": "getTotalTransactions",
      "outputs": [
        {
          "internalType": "uint256",
          "name": "",
          "type": "uint256"
        }
      ],
      "stateMutability": "view",
      "type": "function"
    },
    {
      "inputs": [
        {
          "internalType": "uint256",
          "name": "txnId",
          "type": "uint256"
        }
      ],
      "name": "getTransaction",
      "outputs": [
        {
          "internalType": "address",
          "name": "sender",
          "type": "address"
        },
        {
          "internalType": "address",
          "name": "recipient",
          "type": "address"
        },
        {
          "internalType": "uint256",
          "name": "amount",
          "type": "uint256"
        },
        {
          "internalType": "uint256",
          "name": "fee",
          "type": "uint256"
        },
        {
          "internalType": "uint256",
          "name": "timestamp",
          "type": "uint256"
        },
        {
          "internalType": "address",
          "name": "token",
          "type": "address"
        }
      ],
      "stateMutability": "view",
      "type": "function"
    },
    {
      "inputs": [
        {
          "internalType": "uint256",
          "name": "amount",
          "type": "uint256"
        }
      ],
      "name": "getTransactionCost",
      "outputs": [
        {
          "internalType": "uint256",
          "name": "fee",
          "type": "uint256"
        },
        {
          "internalType": "uint256",
          "name": "total",
          "type": "uint256"
        }
      ],
      "stateMutability": "pure",
      "type": "function"
    },
    {
      "inputs": [
        {
          "internalType": "address",
          "name": "user",
          "type": "address"
        }
      ],
      "name": "getTransactionsByUser",
      "outputs": [
        {
          "components": [
            {
              "internalType": "address",
              "name": "sender",
              "type": "address"
            },
            {
              "internalType": "address",
              "name": "recipient",
              "type": "address"
            },
            {
              "internalType": "uint256",
              "name": "amount",
              "type": "uint256"
            },
            {
              "internalType": "uint256",
              "name": "fee",
              "type": "uint256"
            },
            {
              "internalType": "uint256",
              "name": "timestamp",
              "type": "uint256"
            },
            {
              "internalType": "uint256",
              "name": "txnId",
              "type": "uint256"
            },
            {
              "internalType": "address",
              "name": "token",
              "type": "address"
            }
          ],
          "internalType": "struct Remittance.Transaction[]",
          "name": "",
          "type": "tuple[]"
        }
      ],
      "stateMutability": "view",
      "type": "function"
    },
    {
      "inputs": [
        {
          "internalType": "address",
          "name": "user",
          "type": "address"
        }
      ],
      "name": "getUserInfo",
      "outputs": [
        {
          "internalType": "enum LimitLib.UserTier",
          "name": "tier",
          "type": "uint8"
        },
        {
          "internalType": "uint256",
          "name": "dailyLimit",
          "type": "uint256"
        },
        {
          "internalType": "uint256",
          "name": "todayUsed",
          "type": "uint256"
        },
        {
          "internalType": "uint256",
          "name": "balance",
          "type": "uint256"
        },
        {
          "internalType": "bool",
          "name": "isWhitelistedUser",
          "type": "bool"
        },
        {
          "internalType": "bool",
          "name": "isBlacklistedUser",
          "type": "bool"
        },
        {
          "internalType": "bool",
          "name": "isFrozenUser",
          "type": "bool"
        },
        {
          "internalType": "enum KYCLib.KYCStatus",
          "name": "kycStatus",
          "type": "uint8"
        }
      ],
      "stateMutability": "view",
      "type": "function"
    },
    {
      "inputs": [
        {
          "internalType": "address",
          "name": "user",
          "type": "address"
        }
      ],
      "name": "getUserTransactionIds",
      "outputs": [
        {
          "internalType": "uint256[]",
          "name": "",
          "type": "uint256[]"
        }
      ],
      "stateMutability": "view",
      "type": "function"
    },
    {
      "inputs": [
        {
          "internalType": "address",
          "name": "user",
          "type": "address"
        }
      ],
      "name": "isBlacklisted",
      "outputs": [
        {
          "internalType": "bool",
          "name": "",
          "type": "bool"
        }
      ],
      "stateMutability": "view",
      "type": "function"
    },
    {
      "inputs": [
        {
          "internalType": "address",
          "name": "user",
          "type": "address"
        }
      ],
      "name": "isDataErased",
      "outputs": [
        {
          "internalType": "bool",
          "name": "",
          "type": "bool"
        }
      ],
      "stateMutability": "view",
      "type": "function"
    },
    {
      "inputs": [
        {
          "internalType": "address",
          "name": "user",
          "type": "address"
        }
      ],
      "name": "isFrozen",
      "outputs": [
        {
          "internalType": "bool",
          "name": "",
          "type": "bool"
        }
      ],
      "stateMutability": "view",
      "type": "function"
    },
    {
      "inputs": [
        {
          "internalType": "address",
          "name": "user",
          "type": "address"
        }
      ],
      "name": "isKYCApproved",
      "outputs": [
        {
          "internalType": "bool",
          "name": "",
          "type": "bool"
        }
      ],
      "stateMutability": "view",
      "type": "function"
    },
    {
      "inputs": [
        {
          "internalType": "address",
          "name": "user",
          "type": "address"
        }
      ],
      "name": "isWhitelisted",
      "outputs": [
        {
          "internalType": "bool",
          "name": "",
          "type": "bool"
        }
      ],
      "stateMutability": "view",
      "type": "function"
    },
    {
      "inputs": [],
      "name": "owner",
      "outputs": [
        {
          "internalType": "address",
          "name": "",
          "type": "address"
        }
      ],
      "stateMutability": "view",
      "type": "function"
    },
    {
      "inputs": [],
      "name": "pause",
      "outputs": [],
      "stateMutability": "nonpayable",
      "type": "function"
    },
    {
      "inputs": [],
      "name": "paused",
      "outputs": [
        {
          "internalType": "bool",
          "name": "",
          "type": "bool"
        }
      ],
      "stateMutability": "view",
      "type": "function"
    },
    {
      "inputs": [
        {
          "internalType": "address",
          "name": "user",
          "type": "address"
        },
        {
          "internalType": "string",
          "name": "reason",
          "type": "string"
        }
      ],
      "name": "rejectKYC",
      "outputs": [],
      "stateMutability": "nonpayable",
      "type": "function"
    },
    {
      "inputs": [
        {
          "internalType": "address",
          "name": "token",
          "type": "address"
        }
      ],
      "name": "removeSupportedStablecoin",
      "outputs": [],
      "stateMutability": "nonpayable",
      "type": "function"
    },
    {
      "inputs": [],
      "name": "renounceOwnership",
      "outputs": [],
      "stateMutability": "nonpayable",
      "type": "function"
    },
    {
      "inputs": [
        {
          "internalType": "string",
          "name": "reason",
          "type": "string"
        }
      ],
      "name": "reportSecurityBreach",
      "outputs": [],
      "stateMutability": "nonpayable",
      "type": "function"
    },
    {
      "inputs": [
        {
          "internalType": "string",
          "name": "documentHash",
          "type": "string"
        }
      ],
      "name": "requestKYC",
      "outputs": [],
      "stateMutability": "nonpayable",
      "type": "function"
    },
    {
      "inputs": [
        {
          "internalType": "address",
          "name": "recipient",
          "type": "address"
        }
      ],
      "name": "sendRemittance",
      "outputs": [],
      "stateMutability": "payable",
      "type": "function"
    },
    {
      "inputs": [
        {
          "internalType": "address",
          "name": "token",
          "type": "address"
        },
        {
          "internalType": "address",
          "name": "recipient",
          "type": "address"
        },
        {
          "internalType": "uint256",
          "name": "amount",
          "type": "uint256"
        }
      ],
      "name": "sendStablecoinRemittance",
      "outputs": [],
      "stateMutability": "nonpayable",
      "type": "function"
    },
    {
      "inputs": [
        {
          "internalType": "address",
          "name": "user",
          "type": "address"
        },
        {
          "internalType": "bool",
          "name": "status",
          "type": "bool"
        }
      ],
      "name": "setBlacklist",
      "outputs": [],
      "stateMutability": "nonpayable",
      "type": "function"
    },
    {
      "inputs": [
        {
          "internalType": "enum LimitLib.UserTier",
          "name": "tier",
          "type": "uint8"
        },
        {
          "internalType": "uint256",
          "name": "limit",
          "type": "uint256"
        }
      ],
      "name": "setTierLimit",
      "outputs": [],
      "stateMutability": "nonpayable",
      "type": "function"
    },
    {
      "inputs": [
        {
          "internalType": "address",
          "name": "user",
          "type": "address"
        },
        {
          "internalType": "enum LimitLib.UserTier",
          "name": "tier",
          "type": "uint8"
        }
      ],
      "name": "setUserTier",
      "outputs": [],
      "stateMutability": "nonpayable",
      "type": "function"
    },
    {
      "inputs": [
        {
          "internalType": "address",
          "name": "",
          "type": "address"
        }
      ],
      "name": "stablecoinSymbols",
      "outputs": [
        {
          "internalType": "string",
          "name": "",
          "type": "string"
        }
      ],
      "stateMutability": "view",
      "type": "function"
    },
    {
      "inputs": [
        {
          "internalType": "uint256",
          "name": "",
          "type": "uint256"
        }
      ],
      "name": "supportedStablecoinList",
      "outputs": [
        {
          "internalType": "address",
          "name": "",
          "type": "address"
        }
      ],
      "stateMutability": "view",
      "type": "function"
    },
    {
      "inputs": [
        {
          "internalType": "address",
          "name": "",
          "type": "address"
        }
      ],
      "name": "supportedStablecoins",
      "outputs": [
        {
          "internalType": "bool",
          "name": "",
          "type": "bool"
        }
      ],
      "stateMutability": "view",
      "type": "function"
    },
    {
      "inputs": [
        {
          "internalType": "address",
          "name": "newOwner",
          "type": "address"
        }
      ],
      "name": "transferOwnership",
      "outputs": [],
      "stateMutability": "nonpayable",
      "type": "function"
    },
    {
      "inputs": [],
      "name": "unpause",
      "outputs": [],
      "stateMutability": "nonpayable",
      "type": "function"
    },
    {
      "inputs": [],
      "name": "withdrawFees",
      "outputs": [],
      "stateMutability": "nonpayable",
      "type": "function"
    },
    {
      "inputs": [
        {
          "internalType": "address",
          "name": "token",
          "type": "address"
        }
      ],
      "name": "withdrawStablecoinFees",
      "outputs": [],
      "stateMutability": "nonpayable",
      "type": "function"
    },
    {
      "stateMutability": "payable",
      "type": "receive"
    }
  ],
  "bytecode": "0x608060405260016018553480156200001657600080fd5b5033806200003e57604051631e4fbdf760e01b81526000600482015260240160405180910390fd5b62000049816200014e565b506001805560405163079f15cb60e41b8152600a600482015273__$216d480fa12da97749257234eeb81fa17a$__906379f15cb09060240160006040518083038186803b1580156200009a57600080fd5b505af4158015620000af573d6000803e3d6000fd5b50506007805460018082019092557fa66cc928b5edb82af9bd49922954155ab7b0942694bea4ce44661d9a8736c688018054336001600160a01b031990911681179091556000908152600860209081526040808320805460ff1990811686179091556004808452828520805483166002179055600e845282852080548316909617909555600c90925290912080549091169091179055506200019e9050565b600080546001600160a01b038381166001600160a01b0319831681178455604051919092169283917f8be0079c531659141344cd1fd0a4f28419497f9722a3daafe3b4186f6b6457e09190a35050565b61592380620001ae6000396000f3fe60806040526004361061041e5760003560e01c8063857aa85d1161021e578063c4f4f97f11610123578063dd33186b116100ab578063f2fde38b1161007a578063f2fde38b14610dab578063f67a8c2f14610dcb578063f8b2cb4f14610dfe578063fb9e9d9a14610e1e578063fe575a8714610e3e57610470565b8063dd33186b14610d36578063de23d89a14610d4b578063e583983614610d6b578063e77db23214610d8b57610470565b8063d223521d116100f2578063d223521d14610c69578063d5d3f78b14610c89578063d73792a914610ca9578063d7ff071414610cc0578063db2e21bc14610d2157610470565b8063c4f4f97f14610bdc578063c645a62714610bfc578063ca5fd2d614610c1c578063cfc4260e14610c4957610470565b80639997a8cb116101a6578063b1c39d0b11610175578063b1c39d0b14610b32578063b5c604ff14610b52578063b6a4747f14610b67578063b996dda514610b8c578063bf7d911914610bac57610470565b80639997a8cb14610ab05780639c69775014610ac5578063a04725c614610ae5578063a71428bc14610b0557610470565b806393a6c682116101ed57806393a6c68214610a26578063948b074514610a4657806396b9cbdb14610a6657806397e4ca7014610a86578063994b03ea14610a9b57610470565b8063857aa85d146109a85780638c30e14f146109c85780638da5cb5b146109e8578063903e0a1114610a0657610470565b80634bc8b1c3116103245780636f9fb98a116102ac5780637cc1f8671161027b5780637cc1f867146109095780637e280ef1146109465780637ff248621461095b5780638456cb5914610973578063856e679c1461098857610470565b80636f9fb98a146108a8578063714c894e146108bd578063715018a6146108df5780637c6f73eb146108f457610470565b80635df45a37116102f35780635df45a37146108125780636386c1c71461082757806365e532601461085b57806366aa9aff1461087b5780636cfa11451461088357610470565b80634bc8b1c3146107935780634c738909146107b3578063523e984d146107d55780635c975abb146107fa57610470565b806333ea3dc8116103a75780633de7ac0f116103765780633de7ac0f146106db5780633f4ba83a146107135780634254d7c414610728578063476343ee1461076b57806349bcbb7e1461078057610470565b806333ea3dc81461061d57806335aeac7f14610679578063379db4ab1461069b5780633af32abf146106bb57610470565b8063153b0d1e116103ee578063153b0d1e1461057157806318b51308146105935780631f7528c7146105c8578063238b651c146105e857806327506f531461060857610470565b80620c8df0146104ba578063047ac364146104f05780630d65f3231461051d5780630dc4920c1461054e57610470565b366104705760405162461bcd60e51b815260206004820152601b60248201527f446972656374207061796d656e7473206e6f7420616c6c6f776564000000000060448201526064015b60405180910390fd5b34801561047c57600080fd5b5060405162461bcd60e51b8152602060048201526012602482015271119d5b98dd1a5bdb881b9bdd08199bdd5b9960721b6044820152606401610467565b3480156104c657600080fd5b506104da6104d5366004614fbc565b610e5e565b6040516104e79190615001565b60405180910390f35b3480156104fc57600080fd5b5061051061050b366004614fbc565b610ec3565b6040516104e7919061500f565b34801561052957600080fd5b50336000908152600f602052604090205460ff165b60405190151581526020016104e7565b34801561055a57600080fd5b506105636110e6565b6040519081526020016104e7565b34801561057d57600080fd5b5061059161058c3660046150ad565b611172565b005b34801561059f57600080fd5b506105b36105ae3660046150e4565b611267565b604080519283526020830191909152016104e7565b3480156105d457600080fd5b506105916105e3366004614fbc565b611286565b3480156105f457600080fd5b50610591610603366004615146565b6114e1565b34801561061457600080fd5b506105106115d1565b34801561062957600080fd5b5061063d6106383660046150e4565b611688565b604080516001600160a01b03978816815295871660208701528501939093526060840191909152608083015290911660a082015260c0016104e7565b34801561068557600080fd5b5061068e6118b9565b6040516104e79190615199565b3480156106a757600080fd5b506105916106b6366004614fbc565b611920565b3480156106c757600080fd5b5061053e6106d6366004614fbc565b611a2c565b3480156106e757600080fd5b506106fb6106f63660046150e4565b611a8c565b6040516001600160a01b0390911681526020016104e7565b34801561071f57600080fd5b50610591611ab6565b34801561073457600080fd5b50610563610743366004614fbc565b3360009081526014602090815260408083206001600160a01b03949094168352929052205490565b34801561077757600080fd5b50610591611ac8565b61059161078e366004614fbc565b611be0565b34801561079f57600080fd5b506105636107ae366004614fbc565b6122d3565b3480156107bf57600080fd5b50336000908152600d6020526040902054610563565b3480156107e157600080fd5b503360009081526004602052604090205460ff166104da565b34801561080657600080fd5b5060025460ff1661053e565b34801561081e57600080fd5b506105636122fd565b34801561083357600080fd5b50610847610842366004614fbc565b61230e565b6040516104e79897969594939291906151f6565b34801561086757600080fd5b50610591610876366004614fbc565b61245c565b6105916125ee565b34801561088f57600080fd5b50336000908152600e602052604090205460ff1661053e565b3480156108b457600080fd5b5061056361268f565b3480156108c957600080fd5b506108d261269e565b6040516104e79190615249565b3480156108eb57600080fd5b506105916126fe565b34801561090057600080fd5b5061068e612710565b34801561091557600080fd5b5061091e612770565b604080519586526020860194909452928401919091526060830152608082015260a0016104e7565b34801561095257600080fd5b5061068e61279a565b34801561096757600080fd5b50610563630966018081565b34801561097f57600080fd5b506105916127ff565b34801561099457600080fd5b506105636109a3366004615290565b61280f565b3480156109b457600080fd5b506105636109c3366004614fbc565b61284d565b3480156109d457600080fd5b5061053e6109e3366004614fbc565b6128ad565b3480156109f457600080fd5b506000546001600160a01b03166106fb565b348015610a1257600080fd5b50610591610a213660046152ab565b61290d565b348015610a3257600080fd5b50610591610a41366004615146565b6129c5565b348015610a5257600080fd5b50610591610a61366004614fbc565b612b5d565b348015610a7257600080fd5b50610591610a813660046150ad565b612c5f565b348015610a9257600080fd5b50610510612d4b565b348015610aa757600080fd5b50610563607d81565b348015610abc57600080fd5b50610591612f22565b348015610ad157600080fd5b50610563610ae0366004614fbc565b613155565b348015610af157600080fd5b50610591610b003660046152ed565b61322a565b348015610b1157600080fd5b50610b25610b20366004614fbc565b61339f565b6040516104e79190615366565b348015610b3e57600080fd5b50610591610b4d3660046152ab565b613439565b348015610b5e57600080fd5b50601654610563565b348015610b7357600080fd5b503360009081526010602052604090205460ff1661053e565b348015610b9857600080fd5b50610591610ba7366004615379565b613486565b348015610bb857600080fd5b5061053e610bc7366004614fbc565b60116020526000908152604090205460ff1681565b348015610be857600080fd5b50610563610bf73660046153b5565b613c1e565b348015610c0857600080fd5b50610591610c17366004615424565b613c8b565b348015610c2857600080fd5b50336000908152600c602052604090205460ff166040516104e79190615490565b348015610c5557600080fd5b50610591610c643660046152ed565b6140b1565b348015610c7557600080fd5b50610563610c843660046150e4565b6142b1565b348015610c9557600080fd5b50610591610ca4366004614fbc565b6142d2565b348015610cb557600080fd5b506105636298968081565b348015610ccc57600080fd5b50610ce0610cdb3660046150e4565b6144b4565b604080516001600160a01b03988916815296881660208801528601949094526060850192909252608084015260a083015290911660c082015260e0016104e7565b348015610d2d57600080fd5b50610591614511565b348015610d4257600080fd5b50610591614670565b348015610d5757600080fd5b50610591610d6636600461549e565b614735565b348015610d7757600080fd5b5061053e610d86366004614fbc565b614815565b348015610d9757600080fd5b5061053e610da6366004614fbc565b614875565b348015610db757600080fd5b50610591610dc6366004614fbc565b6148ec565b348015610dd757600080fd5b50610deb610de6366004614fbc565b614927565b6040516104e797969594939291906154c8565b348015610e0a57600080fd5b50610563610e19366004614fbc565b614b5f565b348015610e2a57600080fd5b506108d2610e39366004614fbc565b614bbc565b348015610e4a57600080fd5b5061053e610e59366004614fbc565b614c67565b600081336001600160a01b0382161480610e8257506000546001600160a01b031633145b610e9e5760405162461bcd60e51b815260040161046790615520565b6001600160a01b03831660009081526004602052604090205460ff1691505b50919050565b606081336001600160a01b0382161480610ee757506000546001600160a01b031633145b610f035760405162461bcd60e51b815260040161046790615520565b6001600160a01b038316600090815260176020908152604080832080548251818502810185019093528083529192909190830182828015610f6357602002820191906000526020600020905b815481526020019060010190808311610f4f575b505050505090506000815167ffffffffffffffff811115610f8657610f8661554d565b604051908082528060200260200182016040528015610fbf57816020015b610fac614f4d565b815260200190600190039081610fa45790505b50905060005b82518110156110dd576000838281518110610fe257610fe2615563565b6020026020010151905060005b6016548110156110d357816016828154811061100d5761100d615563565b906000526020600020906007020160050154036110cb576016818154811061103757611037615563565b60009182526020918290206040805160e081018252600790930290910180546001600160a01b03908116845260018201548116948401949094526002810154918301919091526003810154606083015260048101546080830152600581015460a08301526006015490911660c082015284518590859081106110bb576110bb615563565b60200260200101819052506110d3565b600101610fef565b5050600101610fc5565b50949350505050565b604051630339f20560e01b8152600a600482015233602482015260006044820181905290819073__$216d480fa12da97749257234eeb81fa17a$__90630339f205906064016040805180830381865af4158015611147573d6000803e3d6000fd5b505050506040513d601f19601f8201168201806040525081019061116b9190615579565b9392505050565b61117a614cc7565b816001600160a01b0381166111a15760405162461bcd60e51b8152600401610467906155a7565b6001600160a01b0383166000908152600f602052604090205482151560ff9091161515036112065760405162461bcd60e51b815260206004820152601260248201527114dd185d1d5cc8185b1c9958591e481cd95d60721b6044820152606401610467565b6001600160a01b0383166000818152600f6020908152604091829020805460ff191686151590811790915591519182527f5b7ef9d8e7fd7ff1dae13005391bc3aa7cc048c7ba41af348e5da4dcbe7323e091015b60405180910390a2505050565b600080611273836142b1565b915061127f82846155e6565b9050915091565b61128e614cf4565b611296614d1e565b3360008181526004602052604090205460029060ff1660038111156112bd576112bd614fd7565b146112da5760405162461bcd60e51b8152600401610467906155f9565b6001600160a01b0381166000908152600e602052604090205460ff16801561131b57506001600160a01b0381166000908152600f602052604090205460ff16155b6113375760405162461bcd60e51b815260040161046790615623565b6001600160a01b038216600090815260116020526040902054829060ff1661139c5760405162461bcd60e51b815260206004820152601860248201527714dd18589b1958dbda5b881b9bdd081cdd5c1c1bdc9d195960421b6044820152606401610467565b3360009081526010602052604090205460ff16156113f05760405162461bcd60e51b815260206004820152601160248201527020b1b1b7bab73a1034b990333937bd32b760791b6044820152606401610467565b3360009081526014602090815260408083206001600160a01b0387168452909152902054806114615760405162461bcd60e51b815260206004820152601c60248201527f4e6f20737461626c65636f696e2066756e647320746f20636c61696d000000006044820152606401610467565b3360008181526014602090815260408083206001600160a01b03891680855292528220919091556114929183614d42565b6040518181526001600160a01b0385169033907f68c01b99dc1cdbdad1c8a40efdb5c466fa62a14b0f949386487fd7ff7918c05e9060200160405180910390a35050506114de60018055565b50565b6114e9614cc7565b826001600160a01b0381166115105760405162461bcd60e51b8152600401610467906155a7565b8161155d5760405162461bcd60e51b815260206004820152601960248201527f52656a656374696f6e20726561736f6e207265717569726564000000000000006044820152606401610467565b60405163685fcc5d60e01b815273__$2c261102a1e7e270d95414109a826543d2$__9063685fcc5d9061159b90600390889088908890600401615673565b60006040518083038186803b1580156115b357600080fd5b505af41580156115c7573d6000803e3d6000fd5b5050505050505050565b60606115db614cc7565b6016805480602002602001604051908101604052809291908181526020016000905b8282101561167f5760008481526020908190206040805160e0810182526007860290920180546001600160a01b0390811684526001808301548216858701526002830154938501939093526003820154606085015260048201546080850152600582015460a08501526006909101541660c083015290835290920191016115fd565b50505050905090565b6000806000806000806000871180156116a2575060185487105b6116e75760405162461bcd60e51b8152602060048201526016602482015275125b9d985b1a59081d1c985b9cd858dd1a5bdb88125160521b6044820152606401610467565b60005b60165481101561186f57876016828154811061170857611708615563565b906000526020600020906007020160050154036118675760006016828154811061173457611734615563565b600091825260208083206040805160e08101825260079490940290910180546001600160a01b03908116855260018201548116938501939093526002810154918401919091526003810154606084015260048101546080840152600581015460a084015260060154811660c08301529154909250163314806117bf575080516001600160a01b031633145b806117df575080602001516001600160a01b0316336001600160a01b0316145b6118365760405162461bcd60e51b815260206004820152602260248201527f556e617574686f72697a65642061636365737320746f207472616e736163746960448201526137b760f11b6064820152608401610467565b806000015181602001518260400151836060015184608001518560c0015197509750975097509750975050506118b0565b6001016116ea565b5060405162461bcd60e51b8152602060048201526015602482015274151c985b9cd858dd1a5bdb881b9bdd08199bdd5b99605a1b6044820152606401610467565b91939550919395565b60606118c3614cc7565b600780546040805160208084028201810190925282815292919083018282801561191657602002820191906000526020600020905b81546001600160a01b031681526001909101906020018083116118f8575b5050505050905090565b611928614cc7565b806001600160a01b03811661194f5760405162461bcd60e51b8152600401610467906155a7565b604051632b3e983d60e11b8152600360048201526001600160a01b038316602482015273__$2c261102a1e7e270d95414109a826543d2$__9063567d307a9060440160006040518083038186803b1580156119a957600080fd5b505af41580156119bd573d6000803e3d6000fd5b505050506001600160a01b0382166000818152600e60209081526040808320805460ff19908116909155600c835292819020805490931690925590514281527f7c55fd2b4dfaca60482866852f45af89044d84075461983a656e54990575d12291015b60405180910390a25050565b600081336001600160a01b0382161480611a5057506000546001600160a01b031633145b611a6c5760405162461bcd60e51b815260040161046790615520565b50506001600160a01b03166000908152600e602052604090205460ff1690565b60128181548110611a9c57600080fd5b6000918252602090912001546001600160a01b0316905081565b611abe614cc7565b611ac6614da1565b565b611ad0614cc7565b611ad8614cf4565b600060195411611b205760405162461bcd60e51b81526020600482015260136024820152724e6f206665657320746f20776974686472617760681b6044820152606401610467565b6019805460009182905590611b3d6000546001600160a01b031690565b6001600160a01b03168260405160006040518083038185875af1925050503d8060008114611b87576040519150601f19603f3d011682016040523d82523d6000602084013e611b8c565b606091505b5050905080611bd55760405162461bcd60e51b8152602060048201526015602482015274119959481dda5d1a191c985dd85b0819985a5b1959605a1b6044820152606401610467565b5050611ac660018055565b611be8614d1e565b3360008181526004602052604090205460029060ff166003811115611c0f57611c0f614fd7565b14611c2c5760405162461bcd60e51b8152600401610467906155f9565b6001600160a01b0381166000908152600e602052604090205460ff168015611c6d57506001600160a01b0381166000908152600f602052604090205460ff16155b611c895760405162461bcd60e51b815260040161046790615623565b8160026001600160a01b03821660009081526004602052604090205460ff166003811115611cb957611cb9614fd7565b14611cd65760405162461bcd60e51b8152600401610467906155f9565b6001600160a01b0381166000908152600e602052604090205460ff168015611d1757506001600160a01b0381166000908152600f602052604090205460ff16155b611d335760405162461bcd60e51b815260040161046790615623565b336001600160a01b03841603611d815760405162461bcd60e51b815260206004820152601360248201527221b0b73737ba1039b2b732103a379039b2b63360691b6044820152606401610467565b60003411611dd15760405162461bcd60e51b815260206004820181905260248201527f416d6f756e74206d7573742062652067726561746572207468616e207a65726f6044820152606401610467565b6001600160a01b03831660009081526010602052604090205460ff1615611e305760405162461bcd60e51b81526020600482015260136024820152722932b1b4b834b2b73a1034b990333937bd32b760691b6044820152606401610467565b6000611e3b346142b1565b90506000611e4982346156a8565b60408051348152602081018590529192507f30928e76c6a54d53276a61676fb8079d25925880e81e43eb0f66cc81a5fdd0c2910160405180910390a1604051630b23f36d60e21b8152600a600482015233602482015273__$216d480fa12da97749257234eeb81fa17a$__90632c8fcdb49060440160006040518083038186803b158015611ed657600080fd5b505af4158015611eea573d6000803e3d6000fd5b5050604051630339f20560e01b8152600a60048201523360248201523460448201526000925082915073__$216d480fa12da97749257234eeb81fa17a$__90630339f205906064016040805180830381865af4158015611f4e573d6000803e3d6000fd5b505050506040513d601f19601f82011682018060405250810190611f729190615579565b915091508181604051602001611f8891906156bb565b60405160208183030381529060405290611fb55760405162461bcd60e51b81526004016104679190615366565b50336000908152600a602052604081208054349290611fd59084906155e6565b90915550506001600160a01b0387166000908152600d6020526040812080548592906120029084906155e6565b92505081905550836019600082825461201b91906155e6565b90915550506040805160e081018252338082526001600160a01b038a811660208085018281528587018a8152606087018c815242608089019081526018805460a08b01908152600060c08c0181815260168054600181810183559184528e5160079091027fd833147d7dc355ba459fc788f669e58cfaf9dc25ddcd0702e87d69c7b512428981018054928f166001600160a01b031993841617905599517fd833147d7dc355ba459fc788f669e58cfaf9dc25ddcd0702e87d69c7b512428a8b018054918f1691831691909117905597517fd833147d7dc355ba459fc788f669e58cfaf9dc25ddcd0702e87d69c7b512428b8a015595517fd833147d7dc355ba459fc788f669e58cfaf9dc25ddcd0702e87d69c7b512428c89015593517fd833147d7dc355ba459fc788f669e58cfaf9dc25ddcd0702e87d69c7b512428d88015590517fd833147d7dc355ba459fc788f669e58cfaf9dc25ddcd0702e87d69c7b512428e87015591517fd833147d7dc355ba459fc788f669e58cfaf9dc25ddcd0702e87d69c7b512428f90950180549590981694909316939093179095558582526017835287822081548154808801835591845284842090910155838252878220815481549687018255908352929091209093015590549351929390927f3d1eb710c7f636cf67f3e915dc67b8c61bec45252edd4dba3ca40c0e8e49defb9061222f9089908b90918252602082015260400190565b60405180910390a46019546040805187815260208101929092527faf7c505ee772ec188af7067e1f73db08ab028e3d564273442b907742b9c41fa0910160405180910390a160188054906000612284836156f6565b90915550506040518481526001600160a01b0389169033907f3990db2d31862302a685e8086b5755072a6e2b5b780af1ee81ece35ee3cd33459060200160405180910390a35050505050505050565b60006122dd614cc7565b506001600160a01b0381166000908152601560205260409020545b919050565b6000612307614cc7565b5060195490565b60008080808080808088336001600160a01b038216148061233957506000546001600160a01b031633145b6123555760405162461bcd60e51b815260040161046790615520565b6001600160a01b038a166000908152600c602052604081205460ff169950600b908a600481111561238857612388614fd7565b600481111561239957612399614fd7565b815260200190815260200160002054975062015180426123b9919061570f565b6001600160a01b038b166000908152600a6020526040902060010154146123e15760006123fb565b6001600160a01b038a166000908152600a60205260409020545b6001600160a01b03909a166000908152600d6020908152604080832054600e835281842054600f8452828520546010855283862054600490955292909420549c9e9b9d9c909b60ff9485169b50918416995091831697509116945092505050565b612464614cc7565b61246c614cf4565b806001600160a01b0381166124935760405162461bcd60e51b8152600401610467906155a7565b6001600160a01b0382166000908152600d6020526040902054806124ef5760405162461bcd60e51b8152602060048201526013602482015272273790333ab73239903a37903932b1b7bb32b960691b6044820152606401610467565b6001600160a01b0383166000818152600d60205260408082208290555190919083908381818185875af1925050503d8060008114612549576040519150601f19603f3d011682016040523d82523d6000602084013e61254e565b606091505b505090508061259f5760405162461bcd60e51b815260206004820152601860248201527f5265636f76657279207472616e73666572206661696c656400000000000000006044820152606401610467565b836001600160a01b03167fd8138f8a3f377c5259ca548e70e4c2de94f129f5a11036a15b69513cba2b426a836040516125da91815260200190565b60405180910390a25050506114de60018055565b6125f6614cc7565b600034116126575760405162461bcd60e51b815260206004820152602860248201527f4465706f73697420616d6f756e74206d7573742062652067726561746572207460448201526768616e207a65726f60c01b6064820152608401610467565b60405134815233907fce8f50bef0c9b984189b343b8bf9264667774780224a0b53de9005bb2d384a9f906020015b60405180910390a2565b6000612699614cc7565b504790565b3360009081526017602090815260409182902080548351818402810184019094528084526060939283018282801561191657602002820191906000526020600020905b8154815260200190600101908083116126e1575050505050905090565b612706614cc7565b611ac66000614df3565b60606012805480602002602001604051908101604052809291908181526020018280548015611916576020028201919060005260206000209081546001600160a01b031681526001909101906020018083116118f8575050505050905090565b6000806000806000612780614cc7565b505060075460165460055460195492969195504794509250565b60606127a4614cc7565b6005805460408051602080840282018101909252828152929190830182828015611916576020028201919060005260206000209081546001600160a01b031681526001909101906020018083116118f8575050505050905090565b612807614cc7565b611ac6614e43565b6000600b8183600481111561282657612826614fd7565b600481111561283757612837614fd7565b8152602001908152602001600020549050919050565b600081336001600160a01b038216148061287157506000546001600160a01b031633145b61288d5760405162461bcd60e51b815260040161046790615520565b50506001600160a01b031660009081526003602052604090206006015490565b600081336001600160a01b03821614806128d157506000546001600160a01b031633145b6128ed5760405162461bcd60e51b815260040161046790615520565b50506001600160a01b031660009081526009602052604090205460ff1690565b806129535760405162461bcd60e51b8152602060048201526016602482015275111bd8dd5b595b9d081a185cda081c995c5d5a5c995960521b6044820152606401610467565b6040516329fde8e360e01b815273__$2c261102a1e7e270d95414109a826543d2$__906329fde8e39061299190600390339087908790600401615673565b60006040518083038186803b1580156129a957600080fd5b505af41580156129bd573d6000803e3d6000fd5b505050505050565b6129cd614cc7565b826001600160a01b0381166129f45760405162461bcd60e51b8152600401610467906155a7565b6001600160a01b03841660009081526011602052604090205460ff1615612a5d5760405162461bcd60e51b815260206004820152601760248201527f546f6b656e20616c726561647920737570706f727465640000000000000000006044820152606401610467565b81612a9c5760405162461bcd60e51b815260206004820152600f60248201526e14de5b589bdb081c995c5d5a5c9959608a1b6044820152606401610467565b6001600160a01b0384166000818152601160209081526040808320805460ff191660019081179091556012805491820190557fbb8a6a4669ba250d26cd7a459eca9d215f8307e33aebe50379bc5a3617ec34440180546001600160a01b031916851790559282526013905220612b138385836157ad565b50836001600160a01b03167f345afe72ad53f3c1975bf367dfbb88a750a2f259a4c38a137e81cf0ebab585368484604051612b4f92919061586d565b60405180910390a250505050565b612b65614cc7565b612b6d614cf4565b6001600160a01b03811660009081526015602052604090205480612bd35760405162461bcd60e51b815260206004820152601e60248201527f4e6f20737461626c65636f696e206665657320746f20776974686472617700006044820152606401610467565b6001600160a01b038216600090815260156020526040812055612c12612c016000546001600160a01b031690565b6001600160a01b0384169083614d42565b816001600160a01b03167f7ded55c24a8e553c0f1aa06252eab8f4636631f616fb5b387e520bc304a7cab882604051612c4d91815260200190565b60405180910390a2506114de60018055565b612c67614cc7565b816001600160a01b038116612c8e5760405162461bcd60e51b8152600401610467906155a7565b6001600160a01b03831660009081526010602052604090205482151560ff909116151503612cf35760405162461bcd60e51b815260206004820152601260248201527114dd185d1d5cc8185b1c9958591e481cd95d60721b6044820152606401610467565b6001600160a01b038316600081815260106020908152604091829020805460ff191686151590811790915591519182527f713eb400302cebac61f82eb8de5051d38458517ffac43ae45f4a9fd5d09ee698910161125a565b336000908152601760209081526040808320805482518185028101850190935280835260609493830182828015612da157602002820191906000526020600020905b815481526020019060010190808311612d8d575b505050505090506000815167ffffffffffffffff811115612dc457612dc461554d565b604051908082528060200260200182016040528015612dfd57816020015b612dea614f4d565b815260200190600190039081612de25790505b50905060005b8251811015612f1b576000838281518110612e2057612e20615563565b6020026020010151905060005b601654811015612f11578160168281548110612e4b57612e4b615563565b90600052602060002090600702016005015403612f095760168181548110612e7557612e75615563565b60009182526020918290206040805160e081018252600790930290910180546001600160a01b03908116845260018201548116948401949094526002810154918301919091526003810154606083015260048101546080830152600581015460a08301526006015490911660c08201528451859085908110612ef957612ef9615563565b6020026020010181905250612f11565b600101612e2d565b5050600101612e03565b5092915050565b612f2a614cf4565b612f32614d1e565b3360008181526004602052604090205460029060ff166003811115612f5957612f59614fd7565b14612f765760405162461bcd60e51b8152600401610467906155f9565b6001600160a01b0381166000908152600e602052604090205460ff168015612fb757506001600160a01b0381166000908152600f602052604090205460ff16155b612fd35760405162461bcd60e51b815260040161046790615623565b3360009081526010602052604090205460ff16156130275760405162461bcd60e51b815260206004820152601160248201527020b1b1b7bab73a1034b990333937bd32b760791b6044820152606401610467565b336000908152600d60205260409020546130775760405162461bcd60e51b81526020600482015260116024820152704e6f2066756e647320746f20636c61696d60781b6044820152606401610467565b336000818152600d6020526040808220805490839055905190929083908381818185875af1925050503d80600081146130cc576040519150601f19603f3d011682016040523d82523d6000602084013e6130d1565b606091505b50509050806131145760405162461bcd60e51b815260206004820152600f60248201526e151c985b9cd9995c8819985a5b1959608a1b6044820152606401610467565b60405182815233907fd8138f8a3f377c5259ca548e70e4c2de94f129f5a11036a15b69513cba2b426a9060200160405180910390a2505050611ac660018055565b600081336001600160a01b038216148061317957506000546001600160a01b031633145b6131955760405162461bcd60e51b815260040161046790615520565b604051630339f20560e01b8152600a60048201526001600160a01b03841660248201526000604482018190529073__$216d480fa12da97749257234eeb81fa17a$__90630339f205906064016040805180830381865af41580156131fd573d6000803e3d6000fd5b505050506040513d601f19601f820116820180604052508101906132219190615579565b95945050505050565b613232614cc7565b816001600160a01b0381166132595760405162461bcd60e51b8152600401610467906155a7565b60026001600160a01b03841660009081526004602052604090205460ff16600381111561328857613288614fd7565b146132cd5760405162461bcd60e51b8152602060048201526015602482015274155cd95c881b9bdd0812d650c8185c1c1c9bdd9959605a1b6044820152606401610467565b6001600160a01b0383166000908152600e602052604090205460ff1661332c5760405162461bcd60e51b8152602060048201526014602482015273155cd95c881b9bdd081dda1a5d195b1a5cdd195960621b6044820152606401610467565b6001600160a01b0383166000908152600c60205260409020805483919060ff1916600183600481111561336157613361614fd7565b0217905550826001600160a01b03167ff0880b9fd3445ca37e9b5cf896eb23e5292331792ae8b6e4c45bc527c713adad8360405161125a9190615490565b601360205260009081526040902080546133b890615731565b80601f01602080910402602001604051908101604052809291908181526020018280546133e490615731565b80156134315780601f1061340657610100808354040283529160200191613431565b820191906000526020600020905b81548152906001019060200180831161341457829003601f168201915b505050505081565b613441614cc7565b613449614e43565b336001600160a01b03167f1000dd17d61a4dc5492b85c6da3768da554b3da7b0645c573cfdb47d971c8967428484604051611a2093929190615889565b61348e614d1e565b613496614cf4565b3360008181526004602052604090205460029060ff1660038111156134bd576134bd614fd7565b146134da5760405162461bcd60e51b8152600401610467906155f9565b6001600160a01b0381166000908152600e602052604090205460ff16801561351b57506001600160a01b0381166000908152600f602052604090205460ff16155b6135375760405162461bcd60e51b815260040161046790615623565b8260026001600160a01b03821660009081526004602052604090205460ff16600381111561356757613567614fd7565b146135845760405162461bcd60e51b8152600401610467906155f9565b6001600160a01b0381166000908152600e602052604090205460ff1680156135c557506001600160a01b0381166000908152600f602052604090205460ff16155b6135e15760405162461bcd60e51b815260040161046790615623565b6001600160a01b038516600090815260116020526040902054859060ff166136465760405162461bcd60e51b815260206004820152601860248201527714dd18589b1958dbda5b881b9bdd081cdd5c1c1bdc9d195960421b6044820152606401610467565b336001600160a01b038616036136945760405162461bcd60e51b815260206004820152601360248201527221b0b73737ba1039b2b732103a379039b2b63360691b6044820152606401610467565b600084116136e45760405162461bcd60e51b815260206004820181905260248201527f416d6f756e74206d7573742062652067726561746572207468616e207a65726f6044820152606401610467565b6001600160a01b03851660009081526010602052604090205460ff16156137435760405162461bcd60e51b81526020600482015260136024820152722932b1b4b834b2b73a1034b990333937bd32b760691b6044820152606401610467565b600061374e856142b1565b9050600061375c82876156a8565b60408051888152602081018590529192507f30928e76c6a54d53276a61676fb8079d25925880e81e43eb0f66cc81a5fdd0c2910160405180910390a1604051630b23f36d60e21b8152600a600482015233602482015273__$216d480fa12da97749257234eeb81fa17a$__90632c8fcdb49060440160006040518083038186803b1580156137e957600080fd5b505af41580156137fd573d6000803e3d6000fd5b5050604051630339f20560e01b8152600a6004820152336024820152604481018990526000925082915073__$216d480fa12da97749257234eeb81fa17a$__90630339f205906064016040805180830381865af4158015613862573d6000803e3d6000fd5b505050506040513d601f19601f820116820180604052508101906138869190615579565b91509150818160405160200161389c91906156bb565b604051602081830303815290604052906138c95760405162461bcd60e51b81526004016104679190615366565b50336000908152600a6020526040812080548a92906138e99084906155e6565b9091555061390490506001600160a01b038b1633308b614e80565b6001600160a01b03808a166000908152601460209081526040808320938e168352929052908120805485929061393b9084906155e6565b90915550506001600160a01b038a16600090815260156020526040812080548692906139689084906155e6565b9250508190555060006040518060e00160405280336001600160a01b031681526020018b6001600160a01b0316815260200185815260200186815260200142815260200160185481526020018c6001600160a01b03168152509050601681908060018154018082558091505060019003906000526020600020906007020160009091909190915060008201518160000160006101000a8154816001600160a01b0302191690836001600160a01b0316021790555060208201518160010160006101000a8154816001600160a01b0302191690836001600160a01b0316021790555060408201518160020155606082015181600301556080820151816004015560a0820151816005015560c08201518160060160006101000a8154816001600160a01b0302191690836001600160a01b03160217905550505060176000336001600160a01b03166001600160a01b031681526020019081526020016000206018549080600181540180825580915050600190039060005260206000200160009091909190915055601760008b6001600160a01b03166001600160a01b0316815260200190815260200160002060185490806001815401808255809150506001900390600052602060002001600090919091909150558a6001600160a01b03168a6001600160a01b0316336001600160a01b03167f048c44eb840dc1c512d2a2e7313245d9bd2509739a9b26eb069b1ed36d4f077b8789601854604051613ba0939291909283526020830191909152604082015260600190565b60405180910390a460185460408051868152602081018890526001600160a01b038d1692339290917f3d1eb710c7f636cf67f3e915dc67b8c61bec45252edd4dba3ca40c0e8e49defb910160405180910390a460188054906000613c03836156f6565b91905055505050505050505050613c1960018055565b505050565b600082336001600160a01b0382161480613c4257506000546001600160a01b031633145b613c5e5760405162461bcd60e51b815260040161046790615520565b50506001600160a01b03918216600090815260146020908152604080832093909416825291909152205490565b613c93614cc7565b828114613cda5760405162461bcd60e51b8152602060048201526015602482015274082e4e4c2f240d8cadccee8d040dad2e6dac2e8c6d605b1b6044820152606401610467565b6032831115613d225760405162461bcd60e51b815260206004820152601460248201527342617463682073697a6520746f6f206c6172676560601b6044820152606401610467565b60005b838110156140aa576000858583818110613d4157613d41615563565b9050602002016020810190613d569190614fbc565b6001600160a01b031603613dac5760405162461bcd60e51b815260206004820152601860248201527f496e76616c6964206164647265737320696e20626174636800000000000000006044820152606401610467565b600160046000878785818110613dc457613dc4615563565b9050602002016020810190613dd99190614fbc565b6001600160a01b0316815260208101919091526040016000205460ff166003811115613e0757613e07614fd7565b036140a257600073__$2c261102a1e7e270d95414109a826543d2$__63145367866003888886818110613e3c57613e3c615563565b9050602002016020810190613e519190614fbc565b6040516001600160e01b031960e085901b16815260048101929092526001600160a01b03166024820152604401602060405180830381865af4158015613e9b573d6000803e3d6000fd5b505050506040513d601f19601f82011682018060405250810190613ebf91906158a3565b905080156140a0576001600e6000888886818110613edf57613edf615563565b9050602002016020810190613ef49190614fbc565b6001600160a01b031681526020810191909152604001600020805460ff1916911515919091179055838383818110613f2e57613f2e615563565b9050602002016020810190613f439190615290565b600c6000888886818110613f5957613f59615563565b9050602002016020810190613f6e9190614fbc565b6001600160a01b031681526020810191909152604001600020805460ff19166001836004811115613fa157613fa1614fd7565b0217905550858583818110613fb857613fb8615563565b9050602002016020810190613fcd9190614fbc565b6001600160a01b03167f995d2434d36c9bceaab42c56efe51e8ffe41fd11cabefd9e2cb83700d8b2035e600160405161400a911515815260200190565b60405180910390a285858381811061402457614024615563565b90506020020160208101906140399190614fbc565b6001600160a01b03167ff0880b9fd3445ca37e9b5cf896eb23e5292331792ae8b6e4c45bc527c713adad85858581811061407557614075615563565b905060200201602081019061408a9190615290565b6040516140979190615490565b60405180910390a25b505b600101613d25565b5050505050565b6140b9614cc7565b816001600160a01b0381166140e05760405162461bcd60e51b8152600401610467906155a7565b60016001600160a01b03841660009081526004602052604090205460ff16600381111561410f5761410f614fd7565b146141555760405162461bcd60e51b8152602060048201526016602482015275139bc81c195b991a5b99c812d650c81c995c5d595cdd60521b6044820152606401610467565b604051630a29b3c360e11b8152600360048201526001600160a01b038416602482015260009073__$2c261102a1e7e270d95414109a826543d2$__90631453678690604401602060405180830381865af41580156141b7573d6000803e3d6000fd5b505050506040513d601f19601f820116820180604052508101906141db91906158a3565b905080156142ab576001600160a01b0384166000908152600e602090815260408083208054600160ff199182168117909255600c9093529220805486939192169083600481111561422e5761422e614fd7565b0217905550604051600181526001600160a01b038516907f995d2434d36c9bceaab42c56efe51e8ffe41fd11cabefd9e2cb83700d8b2035e9060200160405180910390a2836001600160a01b03167ff0880b9fd3445ca37e9b5cf896eb23e5292331792ae8b6e4c45bc527c713adad84604051612b4f9190615490565b50505050565b6000629896806142c2607d846158c0565b6142cc919061570f565b92915050565b6142da614cc7565b806001600160a01b0381166143015760405162461bcd60e51b8152600401610467906155a7565b6001600160a01b03821660009081526011602052604090205460ff1661435f5760405162461bcd60e51b8152602060048201526013602482015272151bdad95b881b9bdd081cdd5c1c1bdc9d1959606a1b6044820152606401610467565b6001600160a01b0382166000908152601160205260408120805460ff19169055601254905b8181101561447a57836001600160a01b0316601282815481106143a9576143a9615563565b6000918252602090912001546001600160a01b0316036144725760126143d06001846156a8565b815481106143e0576143e0615563565b600091825260209091200154601280546001600160a01b03909216918390811061440c5761440c615563565b9060005260206000200160006101000a8154816001600160a01b0302191690836001600160a01b03160217905550601280548061444b5761444b6158d7565b600082815260209020810160001990810180546001600160a01b031916905501905561447a565b600101614384565b506040516001600160a01b038416907f3302a1b37f04242bb55603f5449e7ecd690a35eef08ba1353c48c20e2aae9cda90600090a2505050565b601681815481106144c457600080fd5b600091825260209091206007909102018054600182015460028301546003840154600485015460058601546006909601546001600160a01b03958616975093851695929491939092911687565b614519614cc7565b60025460ff166145845760405162461bcd60e51b815260206004820152603060248201527f436f6e7472616374206d7573742062652070617573656420666f7220656d657260448201526f19d95b98de481dda5d1a191c985dd85b60821b6064820152608401610467565b47806145c95760405162461bcd60e51b81526020600482015260146024820152734e6f2066756e647320746f20776974686472617760601b6044820152606401610467565b600080546040516001600160a01b039091169083908381818185875af1925050503d8060008114614616576040519150601f19603f3d011682016040523d82523d6000602084013e61461b565b606091505b505090508061466c5760405162461bcd60e51b815260206004820152601b60248201527f456d657267656e6379207769746864726177616c206661696c656400000000006044820152606401610467565b5050565b604051632b3e983d60e11b81526003600482015233602482015273__$2c261102a1e7e270d95414109a826543d2$__9063567d307a9060440160006040518083038186803b1580156146c157600080fd5b505af41580156146d5573d6000803e3d6000fd5b5050336000818152600e60209081526040808320805460ff19908116909155600c835292819020805490931690925590514281529193507f7c55fd2b4dfaca60482866852f45af89044d84075461983a656e54990575d122925001612685565b61473d614cc7565b6000811161478d5760405162461bcd60e51b815260206004820152601f60248201527f4c696d6974206d7573742062652067726561746572207468616e207a65726f006044820152606401610467565b69152d02c7e14af68000008111156147d85760405162461bcd60e51b815260206004820152600e60248201526d098d2dad2e840e8dede40d0d2ced60931b6044820152606401610467565b80600b60008460048111156147ef576147ef614fd7565b600481111561480057614800614fd7565b81526020810191909152604001600020555050565b600081336001600160a01b038216148061483957506000546001600160a01b031633145b6148555760405162461bcd60e51b815260040161046790615520565b50506001600160a01b031660009081526010602052604090205460ff1690565b600081336001600160a01b038216148061489957506000546001600160a01b031633145b6148b55760405162461bcd60e51b815260040161046790615520565b60026001600160a01b03841660009081526004602052604090205460ff1660038111156148e4576148e4614fd7565b149392505050565b6148f4614cc7565b6001600160a01b03811661491e57604051631e4fbdf760e01b815260006004820152602401610467565b6114de81614df3565b60606000808281808087336001600160a01b038216148061495257506000546001600160a01b031633145b61496e5760405162461bcd60e51b815260040161046790615520565b6001600160a01b038916600090815260036020526040808220815160e0810190925280548290829061499f90615731565b80601f01602080910402602001604051908101604052809291908181526020018280546149cb90615731565b8015614a185780601f106149ed57610100808354040283529160200191614a18565b820191906000526020600020905b8154815290600101906020018083116149fb57829003601f168201915b505050918352505060018201546020820152600282015460409091019060ff166003811115614a4957614a49614fd7565b6003811115614a5a57614a5a614fd7565b8152602001600382018054614a6e90615731565b80601f0160208091040260200160405190810160405280929190818152602001828054614a9a90615731565b8015614ae75780601f10614abc57610100808354040283529160200191614ae7565b820191906000526020600020905b815481529060010190602001808311614aca57829003601f168201915b505050505081526020016004820160009054906101000a900460ff16151515158152602001600582015481526020016006820154815250509050806000015181602001518260400151836060015184608001518560a001518660c0015198509850985098509850985098505050919395979092949650565b600081336001600160a01b0382161480614b8357506000546001600160a01b031633145b614b9f5760405162461bcd60e51b815260040161046790615520565b50506001600160a01b03166000908152600d602052604090205490565b606081336001600160a01b0382161480614be057506000546001600160a01b031633145b614bfc5760405162461bcd60e51b815260040161046790615520565b6001600160a01b03831660009081526017602090815260409182902080548351818402810184019094528084529091830182828015614c5a57602002820191906000526020600020905b815481526020019060010190808311614c46575b5050505050915050919050565b600081336001600160a01b0382161480614c8b57506000546001600160a01b031633145b614ca75760405162461bcd60e51b815260040161046790615520565b50506001600160a01b03166000908152600f602052604090205460ff1690565b6000546001600160a01b03163314611ac65760405163118cdaa760e01b8152336004820152602401610467565b600260015403614d1757604051633ee5aeb560e01b815260040160405180910390fd5b6002600155565b60025460ff1615611ac65760405163d93c066560e01b815260040160405180910390fd5b6040516001600160a01b03838116602483015260448201839052613c1991859182169063a9059cbb906064015b604051602081830303815290604052915060e01b6020820180516001600160e01b038381831617835250505050614eb9565b614da9614f2a565b6002805460ff191690557f5db9ee0a495bf2e6ff9c91a7834c1ba4fdd244a5e8aa4e537bd38aeae4b073aa335b6040516001600160a01b03909116815260200160405180910390a1565b600080546001600160a01b038381166001600160a01b0319831681178455604051919092169283917f8be0079c531659141344cd1fd0a4f28419497f9722a3daafe3b4186f6b6457e09190a35050565b614e4b614d1e565b6002805460ff191660011790557f62e78cea01bee320cd4e420270b5ea74000d11b0c9f74754ebdbfc544b05a258614dd63390565b6040516001600160a01b0384811660248301528381166044830152606482018390526142ab9186918216906323b872dd90608401614d6f565b600080602060008451602086016000885af180614edc576040513d6000823e3d81fd5b50506000513d91508115614ef4578060011415614f01565b6001600160a01b0384163b155b156142ab57604051635274afe760e01b81526001600160a01b0385166004820152602401610467565b60025460ff16611ac657604051638dfc202b60e01b815260040160405180910390fd5b6040518060e0016040528060006001600160a01b0316815260200160006001600160a01b031681526020016000815260200160008152602001600081526020016000815260200160006001600160a01b031681525090565b80356001600160a01b03811681146122f857600080fd5b600060208284031215614fce57600080fd5b61116b82614fa5565b634e487b7160e01b600052602160045260246000fd5b60048110614ffd57614ffd614fd7565b9052565b602081016142cc8284614fed565b602080825282518282018190526000919060409081850190868401855b8281101561509257815180516001600160a01b039081168652878201518116888701528682015187870152606080830151908701526080808301519087015260a0808301519087015260c091820151169085015260e0909301929085019060010161502c565b5091979650505050505050565b80151581146114de57600080fd5b600080604083850312156150c057600080fd5b6150c983614fa5565b915060208301356150d98161509f565b809150509250929050565b6000602082840312156150f657600080fd5b5035919050565b60008083601f84011261510f57600080fd5b50813567ffffffffffffffff81111561512757600080fd5b60208301915083602082850101111561513f57600080fd5b9250929050565b60008060006040848603121561515b57600080fd5b61516484614fa5565b9250602084013567ffffffffffffffff81111561518057600080fd5b61518c868287016150fd565b9497909650939450505050565b6020808252825182820181905260009190848201906040850190845b818110156151da5783516001600160a01b0316835292840192918401916001016151b5565b50909695505050505050565b60058110614ffd57614ffd614fd7565b6101008101615205828b6151e6565b886020830152876040830152866060830152851515608083015284151560a083015283151560c083015261523c60e0830184614fed565b9998505050505050505050565b6020808252825182820181905260009190848201906040850190845b818110156151da57835183529284019291840191600101615265565b8035600581106122f857600080fd5b6000602082840312156152a257600080fd5b61116b82615281565b600080602083850312156152be57600080fd5b823567ffffffffffffffff8111156152d557600080fd5b6152e1858286016150fd565b90969095509350505050565b6000806040838503121561530057600080fd5b61530983614fa5565b915061531760208401615281565b90509250929050565b6000815180845260005b818110156153465760208185018101518683018201520161532a565b506000602082860101526020601f19601f83011685010191505092915050565b60208152600061116b6020830184615320565b60008060006060848603121561538e57600080fd5b61539784614fa5565b92506153a560208501614fa5565b9150604084013590509250925092565b600080604083850312156153c857600080fd5b6153d183614fa5565b915061531760208401614fa5565b60008083601f8401126153f157600080fd5b50813567ffffffffffffffff81111561540957600080fd5b6020830191508360208260051b850101111561513f57600080fd5b6000806000806040858703121561543a57600080fd5b843567ffffffffffffffff8082111561545257600080fd5b61545e888389016153df565b9096509450602087013591508082111561547757600080fd5b50615484878288016153df565b95989497509550505050565b602081016142cc82846151e6565b600080604083850312156154b157600080fd5b6154ba83615281565b946020939093013593505050565b60e0815260006154db60e083018a615320565b8860208401526154ee6040840189614fed565b82810360608401526155008188615320565b9515156080840152505060a081019290925260c090910152949350505050565b602080825260139082015272556e617574686f72697a65642061636365737360681b604082015260600190565b634e487b7160e01b600052604160045260246000fd5b634e487b7160e01b600052603260045260246000fd5b6000806040838503121561558c57600080fd5b82516155978161509f565b6020939093015192949293505050565b6020808252600f908201526e496e76616c6964206164647265737360881b604082015260600190565b634e487b7160e01b600052601160045260246000fd5b808201808211156142cc576142cc6155d0565b60208082526010908201526f12d650c81b9bdd08185c1c1c9bdd995960821b604082015260600190565b6020808252600d908201526c1058d8d95cdcc819195b9a5959609a1b604082015260600190565b81835281816020850137506000828201602090810191909152601f909101601f19169091010190565b8481526001600160a01b038416602082015260606040820181905260009061569e908301848661564a565b9695505050505050565b818103818111156142cc576142cc6155d0565b7f4461696c79206c696d69742065786365656465642e2052656d61696e696e673a8152600160fd1b6020820152602181019190915260410190565b600060018201615708576157086155d0565b5060010190565b60008261572c57634e487b7160e01b600052601260045260246000fd5b500490565b600181811c9082168061574557607f821691505b602082108103610ebd57634e487b7160e01b600052602260045260246000fd5b601f821115613c19576000816000526020600020601f850160051c8101602086101561578e5750805b601f850160051c820191505b818110156129bd5782815560010161579a565b67ffffffffffffffff8311156157c5576157c561554d565b6157d9836157d38354615731565b83615765565b6000601f84116001811461580d57600085156157f55750838201355b600019600387901b1c1916600186901b1783556140aa565b600083815260209020601f19861690835b8281101561583e578685013582556020948501946001909201910161581e565b508682101561585b5760001960f88860031b161c19848701351681555b505060018560011b0183555050505050565b60208152600061588160208301848661564a565b949350505050565b83815260406020820152600061322160408301848661564a565b6000602082840312156158b557600080fd5b815161116b8161509f565b80820281158282048414176142cc576142cc6155d0565b634e487b7160e01b600052603160045260246000fdfea2646970667358221220743d03b710c9a50009aa4a1be705d71a67e5194d45cb44549e6f588cf02399b864736f6c63430008180033",
  "linkReferences": {
    "contracts/Remittance.sol": {
      "KYCLib": [
        {
          "length": 20,
          "start": 5914
        },
        {
          "length": 20,
          "start": 6946
        },
        {
          "length": 20,
          "start": 11024
        },
        {
          "length": 20,
          "start": 16318
        },
        {
          "length": 20,
          "start": 17195
        },
        {
          "length": 20,
          "start": 18490
        }
      ],
      "LimitLib": [
        {
          "length": 20,
          "start": 100
        },
        {
          "length": 20,
          "start": 4796
        },
        {
          "length": 20,
          "start": 8271
        },
        {
          "length": 20,
          "start": 8387
        },
        {
          "length": 20,
          "start": 13170
        },
        {
          "length": 20,
          "start": 14690
        },
        {
          "length": 20,
          "start": 14807
        }
      ]
    }
  },
  "deployedLinkReferences": {
    "contracts/Remittance.sol": {
      "KYCLib": [
        {
          "length": 20,
          "start": 5484
        },
        {
          "length": 20,
          "start": 6516
        },
        {
          "length": 20,
          "start": 10594
        },
        {
          "length": 20,
          "start": 15888
        },
        {
          "length": 20,
          "start": 16765
        },
        {
          "length": 20,
          "start": 18060
        }
      ],
      "LimitLib": [
        {
          "length": 20,
          "start": 4366
        },
        {
          "length": 20,
          "start": 7841
        },
        {
          "length": 20,
          "start": 7957
        },
        {
          "length": 20,
          "start": 12740
        },
        {
          "length": 20,
          "start": 14260
        },
        {
          "length": 20,
          "start": 14377
        }
      ]
    }
  }
}