{
  "_format": "hh-sol-artifact-1",
  "contractName": "MockUSD",
  "sourceName": "contracts/MockUSD.sol",
  "abi": [
    {
      "inputs": [
        {
          "internalType": "address",
          "name": "initialAdmin",
          "type": "address"
        }
      ],
      "stateMutability": "nonpayable",
      "type": "constructor"
    },
    {
      "inputs": [
        {
          "internalType": "address",
          "name": "spender",
          "type": "address"
        },
        {
          "internalType": "uint256",
          "name": "allowance",
          "type": "uint256"
        },
        {
          "internalType": "uint256",
          "name": "needed",
          "type": "uint256"
        }
      ],
      "name": "ERC20InsufficientAllowance",
      "type": "error"
    },
    {
      "inputs": [
        {
          "internalType": "address",
          "name": "sender",
          "type": "address"
        },
        {
          "internalType": "uint256",
          "name": "balance",
          "type": "uint256"
        },
        {
          "internalType": "uint256",
          "name": "needed",
          "type": "uint256"
        }
      ],
      "name": "ERC20InsufficientBalance",
      "type": "error"
    },
    {
      "inputs": [
        {
          "internalType": "address",
          "name": "approver",
          "type": "address"
        }
      ],
      "name": "ERC20InvalidApprover",
      "type": "error"
    },
    {
      "inputs": [
        {
          "internalType": "address",
          "name": "receiver",
          "type": "address"
        }
      ],
      "name": "ERC20InvalidReceiver",
      "type": "error"
    },
    {
      "inputs": [
        {
          "internalType": "address",
          "name": "sender",
          "type": "address"
        }
      ],
      "name": "ERC20InvalidSender",
      "type": "error"
    },
    {
      "inputs": [
        {
          "internalType": "address",
          "name": "spender",
          "type": "address"
        }
      ],
      "name": "ERC20InvalidSpender",
      "type": "error"
    },
    {
      "inputs": [
        {
          "internalType": "address",
          "name": "owner",
          "type": "address"
        }
      ],
      "name": "OwnableInvalidOwner",
      "type": "error"
    },
    {
      "inputs": [
        {
          "internalType": "address",
          "name": "account",
          "type": "address"
        }
      ],
      "name": "OwnableUnauthorizedAccount",
      "type": "error"
    },
    {
      "anonymous": false,
      "inputs": [
        {
          "indexed": true,
          "internalType": "address",
          "name": "owner",
          "type": "address"
        },
        {
          "indexed": true,
          "internalType": "address",
          "name": "spender",
          "type": "address"
        },
        {
          "indexed": false,
          "internalType": "uint256",
          "name": "value",
          "type": "uint256"
        }
      ],
      "name": "Approval",
      "type": "event"
    },
    {
      "anonymous": false,
      "inputs": [
        {
          "indexed": true,
          "internalType": "address",
          "name": "user",
          "type": "address"
        },
        {
          "indexed": false,
          "internalType": "uint256",
          "name": "amount",
          "type": "uint256"
        }
      ],
      "name": "FaucetUsed",
      "type": "event"
    },
    {
      "anonymous": false,
      "inputs": [
        {
          "indexed": true,
          "internalType": "address",
          "name": "to",
          "type": "address"
        },
        {
          "indexed": false,
          "internalType": "uint256",
          "name": "amount",
          "type": "uint256"
        }
      ],
      "name": "Minted",
      "type": "event"
    },
    {
      "anonymous": false,
      "inputs": [
        {
          "indexed": true,
          "internalType": "address",
          "name": "previousOwner",
          "type": "address"
        },
        {
          "indexed": true,
          "internalType": "address",
          "name": "newOwner",
          "type": "address"
        }
      ],
      "name": "OwnershipTransferred",
      "type": "event"
    },
    {
      "anonymous": false,
      "inputs": [
        {
          "indexed": true,
          "internalType": "address",
          "name": "from",
          "type": "address"
        },
        {
          "indexed": true,
          "internalType": "address",
          "name": "to",
          "type": "address"
        },
        {
          "indexed": false,
          "internalType": "uint256",
          "name": "value",
          "type": "uint256"
        }
      ],
      "name": "Transfer",
      "type": "event"
    },
    {
      "inputs": [],
      "name": "FAUCET_AMOUNT",
      "outputs": [
        {
          "internalType": "uint256",
          "name": "",
          "type": "uint256"
        }
      ],
      "stateMutability": "view",
      "type": "function"
    },
    {
      "inputs": [],
      "name": "FAUCET_COOLDOWN",
      "outputs": [
        {
          "internalType": "uint256",
          "name": "",
          "type": "uint256"
        }
      ],
      "stateMutability": "view",
      "type": "function"
    },
    {
      "inputs": [
        {
          "internalType": "address",
          "name": "owner",
          "type": "address"
        },
        {
          "internalType": "address",
          "name": "spender",
          "type": "address"
        }
      ],
      "name": "allowance",
      "outputs": [
        {
          "internalType": "uint256",
          "name": "",
          "type": "uint256"
        }
      ],
      "stateMutability": "view",
      "type": "function"
    },
    {
      "inputs": [
        {
          "internalType": "address",
          "name": "spender",
          "type": "address"
        },
        {
          "internalType": "uint256",
          "name": "value",
          "type": "uint256"
        }
      ],
      "name": "approve",
      "outputs": [
        {
          "internalType": "bool",
          "name": "",
          "type": "bool"
        }
      ],
      "stateMutability": "nonpayable",
      "type": "function"
    },
    {
      "inputs": [
        {
          "internalType": "address",
          "name": "account",
          "type": "address"
        }
      ],
      "name": "balanceOf",
      "outputs": [
        {
          "internalType": "uint256",
          "name": "",
          "type": "uint256"
        }
      ],
      "stateMutability": "view",
      "type": "function"
    },
    {
      "inputs": [
        {
          "internalType": "address",
          "name": "account",
          "type": "address"
        }
      ],
      "name": "balanceOfHuman",
      "outputs": [
        {
          "internalType": "uint256",
          "name": "wholeUnits",
          "type": "uint256"
        },
        {
          "internalType": "uint256",
          "name": "rawUnits",
          "type": "uint256"
        }
      ],
      "stateMutability": "view",
      "type": "function"
    },
    {
      "inputs": [],
      "name": "decimals",
      "outputs": [
        {
          "internalType": "uint8",
          "name": "",
          "type": "uint8"
        }
      ],
      "stateMutability": "pure",
      "type": "function"
    },
    {
      "inputs": [],
      "name": "faucet",
      "outputs": [],
      "stateMutability": "nonpayable",
      "type": "function"
    },
    {
      "inputs": [
        {
          "internalType": "address",
          "name": "account",
          "type": "address"
        }
      ],
      "name": "faucetCooldownRemaining",
      "outputs": [
        {
          "internalType": "uint256",
          "name": "",
          "type": "uint256"
        }
      ],
      "stateMutability": "view",
      "type": "function"
    },
    {
      "inputs": [
        {
          "internalType": "address",
          "name": "",
          "type": "address"
        }
      ],
      "name": "lastFaucetTime",
      "outputs": [
        {
          "internalType": "uint256",
          "name": "",
          "type": "uint256"
        }
      ],
      "stateMutability": "view",
      "type": "function"
    },
    {
      "inputs": [
        {
          "internalType": "address",
          "name": "to",
          "type": "address"
        },
        {
          "internalType": "uint256",
          "name": "amount",
          "type": "uint256"
        }
      ],
      "name": "mint",
      "outputs": [],
      "stateMutability": "nonpayable",
      "type": "function"
    },
    {
      "inputs": [],
      "name": "name",
      "outputs": [
        {
          "internalType": "string",
          "name": "",
          "type": "string"
        }
      ],
      "stateMutability": "view",
      "type": "function"
    },
    {
      "inputs": [],
      "name": "owner",
      "outputs": [
        {
          "internalType": "address",
          "name": "",
          "type": "address"
        }
      ],
      "stateMutability": "view",
      "type": "function"
    },
    {
      "inputs": [],
      "name": "renounceOwnership",
      "outputs": [],
      "stateMutability": "nonpayable",
      "type": "function"
    },
    {
      "inputs": [],
      "name": "symbol",
      "outputs": [
        {
          "internalType": "string",
          "name": "",
          "type": "string"
        }
      ],
      "stateMutability": "view",
      "type": "function"
    },
    {
      "inputs": [],
      "name": "totalSupply",
      "outputs": [
        {
          "internalType": "uint256",
          "name": "",
          "type": "uint256"
        }
      ],
      "stateMutability": "view",
      "type": "function"
    },
    {
      "inputs": [
        {
          "internalType": "address",
          "name": "to",
          "type": "address"
        },
        {
          "internalType": "uint256",
          "name": "value",
          "type": "uint256"
        }
      ],
      "name": "transfer",
      "outputs": [
        {
          "internalType": "bool",
          "name": "",
          "type": "bool"
        }
      ],
      "stateMutability": "nonpayable",
      "type": "function"
    },
    {
      "inputs": [
        {
          "internalType": "address",
          "name": "from",
          "type": "address"
        },
        {
          "internalType": "address",
          "name": "to",
          "type": "address"
        },
        {
          "internalType": "uint256",
          "name": "value",
          "type": "uint256"
        }
      ],
      "name": "transferFrom",
      "outputs": [
        {
          "internalType": "bool",
          "name": "",
          "type": "bool"
        }
      ],
      "stateMutability": "nonpayable",
      "type": "function"
    },
    {
      "inputs": [
        {
          "internalType": "address",
          "name": "newOwner",
          "type": "address"
        }
      ],
      "name": "transferOwnership",
      "outputs": [],
      "stateMutability": "nonpayable",
      "type": "function"
    }
  ],
  "bytecode": "0x60806040523480156200001157600080fd5b50604051620012cc380380620012cc83398101604081905262000034916200030e565b8060405180604001604052806008815260200167135bd8dac81554d160c21b81525060405180604001604052806004815260200163135554d160e21b8152508160039081620000849190620003e7565b506004620000938282620003e7565b5050506001600160a01b038116620000c657604051631e4fbdf760e01b8152600060048201526024015b60405180910390fd5b620000d1816200014b565b506000620000e26006600a620005c8565b620000f190620f4240620005d9565b9050620000ff82826200019d565b816001600160a01b03167f30385c845b448a36257a6a1716e6ad2e1bc2cbe333cde1e69fe849ad6511adfe826040516200013b91815260200190565b60405180910390a2505062000609565b600580546001600160a01b038381166001600160a01b0319831681179093556040519116919082907f8be0079c531659141344cd1fd0a4f28419497f9722a3daafe3b4186f6b6457e090600090a35050565b6001600160a01b038216620001c95760405163ec442f0560e01b815260006004820152602401620000bd565b620001d760008383620001db565b5050565b6001600160a01b0383166200020a578060026000828254620001fe9190620005f3565b909155506200027e9050565b6001600160a01b038316600090815260208190526040902054818110156200025f5760405163391434e360e21b81526001600160a01b03851660048201526024810182905260448101839052606401620000bd565b6001600160a01b03841660009081526020819052604090209082900390555b6001600160a01b0382166200029c57600280548290039055620002bb565b6001600160a01b03821660009081526020819052604090208054820190555b816001600160a01b0316836001600160a01b03167fddf252ad1be2c89b69c2b068fc378daa952ba7f163c4a11628f55a4df523b3ef836040516200030191815260200190565b60405180910390a3505050565b6000602082840312156200032157600080fd5b81516001600160a01b03811681146200033957600080fd5b9392505050565b634e487b7160e01b600052604160045260246000fd5b600181811c908216806200036b57607f821691505b6020821081036200038c57634e487b7160e01b600052602260045260246000fd5b50919050565b601f821115620003e2576000816000526020600020601f850160051c81016020861015620003bd5750805b601f850160051c820191505b81811015620003de57828155600101620003c9565b5050505b505050565b81516001600160401b0381111562000403576200040362000340565b6200041b8162000414845462000356565b8462000392565b602080601f8311600181146200045357600084156200043a5750858301515b600019600386901b1c1916600185901b178555620003de565b600085815260208120601f198616915b82811015620004845788860151825594840194600190910190840162000463565b5085821015620004a35787850151600019600388901b60f8161c191681555b5050505050600190811b01905550565b634e487b7160e01b600052601160045260246000fd5b600181815b808511156200050a578160001904821115620004ee57620004ee620004b3565b80851615620004fc57918102915b93841c9390800290620004ce565b509250929050565b6000826200052357506001620005c2565b816200053257506000620005c2565b81600181146200054b5760028114620005565762000576565b6001915050620005c2565b60ff8411156200056a576200056a620004b3565b50506001821b620005c2565b5060208310610133831016604e8410600b84101617156200059b575081810a620005c2565b620005a78383620004c9565b8060001904821115620005be57620005be620004b3565b0290505b92915050565b60006200033960ff84168362000512565b8082028115828204841417620005c257620005c2620004b3565b80820180821115620005c257620005c2620004b3565b610cb380620006196000396000f3fe608060405234801561001057600080fd5b50600436106101215760003560e01c80637bc1f6cc116100ad578063a9059cbb11610071578063a9059cbb14610261578063b44bae8e14610274578063dd62ed3e14610287578063de5f72fd146102c0578063f2fde38b146102c857600080fd5b80637bc1f6cc146101ec5780637d1d5d191461020c5780638da5cb5b1461021657806395d89b411461023157806399123b441461023957600080fd5b8063313ce567116100f4578063313ce5671461018c57806340c10f191461019b57806370a08231146101b0578063715018a6146101d957806376697640146101e157600080fd5b806306fdde0314610126578063095ea7b31461014457806318160ddd1461016757806323b872dd14610179575b600080fd5b61012e6102db565b60405161013b91906109d3565b60405180910390f35b610157610152366004610a3e565b61036d565b604051901515815260200161013b565b6002545b60405190815260200161013b565b610157610187366004610a68565b610387565b6040516006815260200161013b565b6101ae6101a9366004610a3e565b6103ab565b005b61016b6101be366004610aa4565b6001600160a01b031660009081526020819052604090205490565b6101ae61045f565b61016b633b9aca0081565b61016b6101fa366004610aa4565b60066020526000908152604090205481565b61016b6201518081565b6005546040516001600160a01b03909116815260200161013b565b61012e610473565b61024c610247366004610aa4565b610482565b6040805192835260208301919091520161013b565b61015761026f366004610a3e565b6104b8565b61016b610282366004610aa4565b6104c6565b61016b610295366004610abf565b6001600160a01b03918216600090815260016020908152604080832093909416825291909152205490565b6101ae610512565b6101ae6102d6366004610aa4565b6105ed565b6060600380546102ea90610af2565b80601f016020809104026020016040519081016040528092919081815260200182805461031690610af2565b80156103635780601f1061033857610100808354040283529160200191610363565b820191906000526020600020905b81548152906001019060200180831161034657829003601f168201915b5050505050905090565b60003361037b81858561062b565b60019150505b92915050565b60003361039585828561063d565b6103a08585856106bc565b506001949350505050565b6103b361071b565b6001600160a01b03821661040e5760405162461bcd60e51b815260206004820152601d60248201527f4d6f636b5553443a206d696e7420746f207a65726f206164647265737300000060448201526064015b60405180910390fd5b6104188282610748565b816001600160a01b03167f30385c845b448a36257a6a1716e6ad2e1bc2cbe333cde1e69fe849ad6511adfe8260405161045391815260200190565b60405180910390a25050565b61046761071b565b6104716000610782565b565b6060600480546102ea90610af2565b6001600160a01b0381166000908152602081905260408120546104a76006600a610c26565b6104b19082610c35565b9150915091565b60003361037b8185856106bc565b6001600160a01b03811660009081526006602052604081205481906104ef906201518090610c57565b90508042106105015750600092915050565b61050b4282610c6a565b9392505050565b33600090815260066020526040902054610530906201518090610c57565b4210156105925760405162461bcd60e51b815260206004820152602a60248201527f4d6f636b5553443a2066617563657420636f6f6c646f776e206e6f7420656c616044820152697073656420283234682960b01b6064820152608401610405565b3360008181526006602052604090204290556105b290633b9aca00610748565b604051633b9aca00815233907fc471df7d13ab46c73ec6eb2da0f35f84077f20d50243ba09a714b82cffc54de99060200160405180910390a2565b6105f561071b565b6001600160a01b03811661061f57604051631e4fbdf760e01b815260006004820152602401610405565b61062881610782565b50565b61063883838360016107d4565b505050565b6001600160a01b038381166000908152600160209081526040808320938616835292905220546000198110156106b657818110156106a757604051637dc7a0d960e11b81526001600160a01b03841660048201526024810182905260448101839052606401610405565b6106b6848484840360006107d4565b50505050565b6001600160a01b0383166106e657604051634b637e8f60e11b815260006004820152602401610405565b6001600160a01b0382166107105760405163ec442f0560e01b815260006004820152602401610405565b6106388383836108a9565b6005546001600160a01b031633146104715760405163118cdaa760e01b8152336004820152602401610405565b6001600160a01b0382166107725760405163ec442f0560e01b815260006004820152602401610405565b61077e600083836108a9565b5050565b600580546001600160a01b038381166001600160a01b0319831681179093556040519116919082907f8be0079c531659141344cd1fd0a4f28419497f9722a3daafe3b4186f6b6457e090600090a35050565b6001600160a01b0384166107fe5760405163e602df0560e01b815260006004820152602401610405565b6001600160a01b03831661082857604051634a1406b160e11b815260006004820152602401610405565b6001600160a01b03808516600090815260016020908152604080832093871683529290522082905580156106b657826001600160a01b0316846001600160a01b03167f8c5be1e5ebec7d5bd14f71427d1e84f3dd0314c0f7b2291e5b200ac8c7c3b9258460405161089b91815260200190565b60405180910390a350505050565b6001600160a01b0383166108d45780600260008282546108c99190610c57565b909155506109469050565b6001600160a01b038316600090815260208190526040902054818110156109275760405163391434e360e21b81526001600160a01b03851660048201526024810182905260448101839052606401610405565b6001600160a01b03841660009081526020819052604090209082900390555b6001600160a01b03821661096257600280548290039055610981565b6001600160a01b03821660009081526020819052604090208054820190555b816001600160a01b0316836001600160a01b03167fddf252ad1be2c89b69c2b068fc378daa952ba7f163c4a11628f55a4df523b3ef836040516109c691815260200190565b60405180910390a3505050565b60006020808352835180602085015260005b81811015610a01578581018301518582016040015282016109e5565b506000604082860101526040601f19601f8301168501019250505092915050565b80356001600160a01b0381168114610a3957600080fd5b919050565b60008060408385031215610a5157600080fd5b610a5a83610a22565b946020939093013593505050565b600080600060608486031215610a7d57600080fd5b610a8684610a22565b9250610a9460208501610a22565b9150604084013590509250925092565b600060208284031215610ab657600080fd5b61050b82610a22565b60008060408385031215610ad257600080fd5b610adb83610a22565b9150610ae960208401610a22565b90509250929050565b600181811c90821680610b0657607f821691505b602082108103610b2657634e487b7160e01b600052602260045260246000fd5b50919050565b634e487b7160e01b600052601160045260246000fd5b600181815b80851115610b7d578160001904821115610b6357610b63610b2c565b80851615610b7057918102915b93841c9390800290610b47565b509250929050565b600082610b9457506001610381565b81610ba157506000610381565b8160018114610bb75760028114610bc157610bdd565b6001915050610381565b60ff841115610bd257610bd2610b2c565b50506001821b610381565b5060208310610133831016604e8410600b8410161715610c00575081810a610381565b610c0a8383610b42565b8060001904821115610c1e57610c1e610b2c565b029392505050565b600061050b60ff841683610b85565b600082610c5257634e487b7160e01b600052601260045260246000fd5b500490565b8082018082111561038157610381610b2c565b8181038181111561038157610381610b2c56fea2646970667358221220f9c20f5ef3064af7aabe047edd6b5871047885922ccc03f5b11f6dede25c3be564736f6c63430008180033",
  "linkReferences": {},
  "deployedLinkReferences": {}
}